{
  "contracts/MovieSurveyCreator.sol": {
    "MovieSurveyCreator": {
      "abi": [
        {
          "inputs": [],
          "stateMutability": "nonpayable",
          "type": "constructor"
        },
        {
          "inputs": [],
          "name": "AlreadyVoted",
          "type": "error"
        },
        {
          "inputs": [],
          "name": "EnforcedPause",
          "type": "error"
        },
        {
          "inputs": [],
          "name": "ExpectedPause",
          "type": "error"
        },
        {
          "inputs": [],
          "name": "InvalidMovieId",
          "type": "error"
        },
        {
          "inputs": [],
          "name": "ReentrancyGuardReentrantCall",
          "type": "error"
        },
        {
          "inputs": [],
          "name": "SurveyAlreadyStarted",
          "type": "error"
        },
        {
          "inputs": [],
          "name": "SurveyCreatorCannotVote",
          "type": "error"
        },
        {
          "inputs": [],
          "name": "SurveyDoesNotExist",
          "type": "error"
        },
        {
          "inputs": [],
          "name": "SurveyHasEnded",
          "type": "error"
        },
        {
          "inputs": [],
          "name": "SurveyNotStarted",
          "type": "error"
        },
        {
          "inputs": [],
          "name": "Unauthorized",
          "type": "error"
        },
        {
          "anonymous": false,
          "inputs": [
            {
              "indexed": true,
              "internalType": "address",
              "name": "by",
              "type": "address"
            }
          ],
          "name": "ContractPaused",
          "type": "event"
        },
        {
          "anonymous": false,
          "inputs": [
            {
              "indexed": true,
              "internalType": "address",
              "name": "by",
              "type": "address"
            }
          ],
          "name": "ContractUnpaused",
          "type": "event"
        },
        {
          "anonymous": false,
          "inputs": [
            {
              "indexed": false,
              "internalType": "address",
              "name": "account",
              "type": "address"
            }
          ],
          "name": "Paused",
          "type": "event"
        },
        {
          "anonymous": false,
          "inputs": [
            {
              "indexed": false,
              "internalType": "uint256",
              "name": "surveyId",
              "type": "uint256"
            },
            {
              "indexed": true,
              "internalType": "address",
              "name": "surveyCreator",
              "type": "address"
            }
          ],
          "name": "SurveyCreated",
          "type": "event"
        },
        {
          "anonymous": false,
          "inputs": [
            {
              "indexed": true,
              "internalType": "uint256",
              "name": "surveyId",
              "type": "uint256"
            },
            {
              "indexed": false,
              "internalType": "uint256",
              "name": "winningMovieId",
              "type": "uint256"
            },
            {
              "indexed": false,
              "internalType": "uint256",
              "name": "winningMovieVotes",
              "type": "uint256"
            }
          ],
          "name": "SurveyEnded",
          "type": "event"
        },
        {
          "anonymous": false,
          "inputs": [
            {
              "indexed": false,
              "internalType": "uint256",
              "name": "surveyId",
              "type": "uint256"
            }
          ],
          "name": "SurveyStarted",
          "type": "event"
        },
        {
          "anonymous": false,
          "inputs": [
            {
              "indexed": false,
              "internalType": "address",
              "name": "account",
              "type": "address"
            }
          ],
          "name": "Unpaused",
          "type": "event"
        },
        {
          "anonymous": false,
          "inputs": [
            {
              "indexed": false,
              "internalType": "uint256",
              "name": "surveyId",
              "type": "uint256"
            },
            {
              "indexed": false,
              "internalType": "string",
              "name": "movie",
              "type": "string"
            },
            {
              "indexed": true,
              "internalType": "address",
              "name": "voter",
              "type": "address"
            }
          ],
          "name": "Voted",
          "type": "event"
        },
        {
          "stateMutability": "nonpayable",
          "type": "fallback"
        },
        {
          "inputs": [],
          "name": "MAX_SURVEY_DURATION",
          "outputs": [
            {
              "internalType": "uint256",
              "name": "",
              "type": "uint256"
            }
          ],
          "stateMutability": "view",
          "type": "function"
        },
        {
          "inputs": [],
          "name": "contractOwner",
          "outputs": [
            {
              "internalType": "address",
              "name": "",
              "type": "address"
            }
          ],
          "stateMutability": "view",
          "type": "function"
        },
        {
          "inputs": [
            {
              "internalType": "string",
              "name": "_genre",
              "type": "string"
            },
            {
              "internalType": "string[]",
              "name": "_movies",
              "type": "string[]"
            },
            {
              "internalType": "uint256",
              "name": "_duration",
              "type": "uint256"
            }
          ],
          "name": "createSurvey",
          "outputs": [
            {
              "internalType": "uint256",
              "name": "",
              "type": "uint256"
            }
          ],
          "stateMutability": "nonpayable",
          "type": "function"
        },
        {
          "inputs": [
            {
              "internalType": "uint256",
              "name": "_surveyId",
              "type": "uint256"
            }
          ],
          "name": "endSurvey",
          "outputs": [],
          "stateMutability": "nonpayable",
          "type": "function"
        },
        {
          "inputs": [
            {
              "internalType": "uint256",
              "name": "_surveyId",
              "type": "uint256"
            }
          ],
          "name": "getCurrentLeadingMovie",
          "outputs": [
            {
              "internalType": "string",
              "name": "",
              "type": "string"
            },
            {
              "internalType": "uint256",
              "name": "",
              "type": "uint256"
            }
          ],
          "stateMutability": "view",
          "type": "function"
        },
        {
          "inputs": [
            {
              "internalType": "uint256",
              "name": "_surveyId",
              "type": "uint256"
            }
          ],
          "name": "getSurvey",
          "outputs": [
            {
              "internalType": "address",
              "name": "_surveyCreator",
              "type": "address"
            },
            {
              "internalType": "string",
              "name": "_genre",
              "type": "string"
            },
            {
              "internalType": "string[]",
              "name": "_movies",
              "type": "string[]"
            },
            {
              "internalType": "uint256",
              "name": "_startTime",
              "type": "uint256"
            },
            {
              "internalType": "uint256",
              "name": "_duration",
              "type": "uint256"
            },
            {
              "internalType": "enum MovieSurveyCreator.SurveyStatus",
              "name": "_status",
              "type": "uint8"
            }
          ],
          "stateMutability": "view",
          "type": "function"
        },
        {
          "inputs": [],
          "name": "pause",
          "outputs": [],
          "stateMutability": "nonpayable",
          "type": "function"
        },
        {
          "inputs": [],
          "name": "paused",
          "outputs": [
            {
              "internalType": "bool",
              "name": "",
              "type": "bool"
            }
          ],
          "stateMutability": "view",
          "type": "function"
        },
        {
          "inputs": [
            {
              "internalType": "uint256",
              "name": "_surveyId",
              "type": "uint256"
            }
          ],
          "name": "startSurvey",
          "outputs": [],
          "stateMutability": "nonpayable",
          "type": "function"
        },
        {
          "inputs": [],
          "name": "unpause",
          "outputs": [],
          "stateMutability": "nonpayable",
          "type": "function"
        },
        {
          "inputs": [
            {
              "internalType": "uint256",
              "name": "_surveyId",
              "type": "uint256"
            },
            {
              "internalType": "uint256",
              "name": "_movieId",
              "type": "uint256"
            }
          ],
          "name": "vote",
          "outputs": [],
          "stateMutability": "nonpayable",
          "type": "function"
        },
        {
          "stateMutability": "payable",
          "type": "receive"
        }
      ],
      "evm": {
        "bytecode": {
          "linkReferences": {},
          "object": "6080604052348015600f57600080fd5b5060016000819055506000600160006101000a81548160ff021916908315150217905550336001806101000a81548173ffffffffffffffffffffffffffffffffffffffff021916908373ffffffffffffffffffffffffffffffffffffffff1602179055506124e3806100826000396000f3fe6080604052600436106100a05760003560e01c8063a6c6723311610064578063a6c6723314610201578063b384abef1461022a578063ce606ee014610253578063dc70cefc1461027e578063f6de78f5146102bb578063fdf7258a146102e4576100e0565b80633f4ba83a146101285780635154df171461013f5780635c975abb1461017d5780638456cb59146101a857806389670e15146101bf576100e0565b366100e0576040517f08c379a00000000000000000000000000000000000000000000000000000000081526004016100d79061185b565b60405180910390fd5b3480156100ec57600080fd5b506040517f08c379a000000000000000000000000000000000000000000000000000000000815260040161011f906118c7565b60405180910390fd5b34801561013457600080fd5b5061013d61030f565b005b34801561014b57600080fd5b5061016660048036038101906101619190611927565b6103e1565b6040516101749291906119e2565b60405180910390f35b34801561018957600080fd5b5061019261062e565b60405161019f9190611a2d565b60405180910390f35b3480156101b457600080fd5b506101bd610645565b005b3480156101cb57600080fd5b506101e660048036038101906101e19190611927565b610717565b6040516101f896959493929190611c0c565b60405180910390f35b34801561020d57600080fd5b5061022860048036038101906102239190611927565b610994565b005b34801561023657600080fd5b50610251600480360381019061024c9190611c7b565b610bd0565b005b34801561025f57600080fd5b506102686110d7565b6040516102759190611cbb565b60405180910390f35b34801561028a57600080fd5b506102a560048036038101906102a09190611d91565b6110fb565b6040516102b29190611e26565b60405180910390f35b3480156102c757600080fd5b506102e260048036038101906102dd9190611927565b6113bb565b005b3480156102f057600080fd5b506102f9611633565b6040516103069190611e26565b60405180910390f35b60018054906101000a900473ffffffffffffffffffffffffffffffffffffffff1673ffffffffffffffffffffffffffffffffffffffff163373ffffffffffffffffffffffffffffffffffffffff1614610394576040517f82b4290000000000000000000000000000000000000000000000000000000000815260040160405180910390fd5b61039c61163a565b3373ffffffffffffffffffffffffffffffffffffffff167f5b65b0c1363b3003db9bcc5e1fd8805a6d6bf5bf6dc9d3431ee4494cd7d1176660405160405180910390a2565b6060600082600073ffffffffffffffffffffffffffffffffffffffff166003600083815260200190815260200160002060000160009054906101000a900473ffffffffffffffffffffffffffffffffffffffff1673ffffffffffffffffffffffffffffffffffffffff1603610482576040517fd956962900000000000000000000000000000000000000000000000000000000815260040160405180910390fd5b836000600360008381526020019081526020016000209050600160028111156104ae576104ad611b95565b5b8160000160149054906101000a900460ff1660028111156104d2576104d1611b95565b5b14610509576040517fbe02bafd00000000000000000000000000000000000000000000000000000000815260040160405180910390fd5b428160040154826003015461051e9190611e70565b11610555576040517f90bee62d00000000000000000000000000000000000000000000000000000000815260040160405180910390fd5b60006003600088815260200190815260200160002090508060020181600601548154811061058657610585611ea4565b5b9060005260206000200181600701548180546105a190611f02565b80601f01602080910402602001604051908101604052809291908181526020018280546105cd90611f02565b801561061a5780601f106105ef5761010080835404028352916020019161061a565b820191906000526020600020905b8154815290600101906020018083116105fd57829003601f168201915b505050505091509550955050505050915091565b6000600160009054906101000a900460ff16905090565b60018054906101000a900473ffffffffffffffffffffffffffffffffffffffff1673ffffffffffffffffffffffffffffffffffffffff163373ffffffffffffffffffffffffffffffffffffffff16146106ca576040517f82b4290000000000000000000000000000000000000000000000000000000000815260040160405180910390fd5b6106d261169d565b3373ffffffffffffffffffffffffffffffffffffffff167f81990fd9a5c552b8e3677917d8a03c07678f0d2cb68f88b634aca2022e9bd19f60405160405180910390a2565b6000606080600080600086600073ffffffffffffffffffffffffffffffffffffffff166003600083815260200190815260200160002060000160009054906101000a900473ffffffffffffffffffffffffffffffffffffffff1673ffffffffffffffffffffffffffffffffffffffff16036107be576040517fd956962900000000000000000000000000000000000000000000000000000000815260040160405180910390fd5b6000600360008a815260200190815260200160002090508060000160009054906101000a900473ffffffffffffffffffffffffffffffffffffffff168160010182600201836003015484600401548560000160149054906101000a900460ff1684805461082a90611f02565b80601f016020809104026020016040519081016040528092919081815260200182805461085690611f02565b80156108a35780601f10610878576101008083540402835291602001916108a3565b820191906000526020600020905b81548152906001019060200180831161088657829003601f168201915b5050505050945083805480602002602001604051908101604052809291908181526020016000905b828210156109775783829060005260206000200180546108ea90611f02565b80601f016020809104026020016040519081016040528092919081815260200182805461091690611f02565b80156109635780601f1061093857610100808354040283529160200191610963565b820191906000526020600020905b81548152906001019060200180831161094657829003601f168201915b5050505050815260200190600101906108cb565b505050509350975097509750975097509750505091939550919395565b80600073ffffffffffffffffffffffffffffffffffffffff166003600083815260200190815260200160002060000160009054906101000a900473ffffffffffffffffffffffffffffffffffffffff1673ffffffffffffffffffffffffffffffffffffffff1603610a31576040517fd956962900000000000000000000000000000000000000000000000000000000815260040160405180910390fd5b610a396116ff565b816003600082815260200190815260200160002060000160009054906101000a900473ffffffffffffffffffffffffffffffffffffffff1673ffffffffffffffffffffffffffffffffffffffff163373ffffffffffffffffffffffffffffffffffffffff1614610ad5576040517f82b4290000000000000000000000000000000000000000000000000000000000815260040160405180910390fd5b600060036000858152602001908152602001600020905060016002811115610b0057610aff611b95565b5b8160000160149054906101000a900460ff166002811115610b2457610b23611b95565b5b14610b5b576040517fbe02bafd00000000000000000000000000000000000000000000000000000000815260040160405180910390fd5b60028160000160146101000a81548160ff02191690836002811115610b8357610b82611b95565b5b0217905550837f6c8af3395e52e06b82fb64d66eba89436b4db530d05c84329e3f1d1cc2bfe34582600601548360070154604051610bc2929190611f33565b60405180910390a250505050565b610bd8611740565b610be06116ff565b81600073ffffffffffffffffffffffffffffffffffffffff166003600083815260200190815260200160002060000160009054906101000a900473ffffffffffffffffffffffffffffffffffffffff1673ffffffffffffffffffffffffffffffffffffffff1603610c7d576040517fd956962900000000000000000000000000000000000000000000000000000000815260040160405180910390fd5b82600060036000838152602001908152602001600020905060016002811115610ca957610ca8611b95565b5b8160000160149054906101000a900460ff166002811115610ccd57610ccc611b95565b5b14610d04576040517fbe02bafd00000000000000000000000000000000000000000000000000000000815260040160405180910390fd5b4281600401548260030154610d199190611e70565b11610d50576040517f90bee62d00000000000000000000000000000000000000000000000000000000815260040160405180910390fd5b600060036000878152602001908152602001600020905080600201805490508510610da7576040517f111b8d9100000000000000000000000000000000000000000000000000000000815260040160405180910390fd5b6004600087815260200190815260200160002060003373ffffffffffffffffffffffffffffffffffffffff1673ffffffffffffffffffffffffffffffffffffffff16815260200190815260200160002060009054906101000a900460ff1615610e3c576040517f7c9a1cf900000000000000000000000000000000000000000000000000000000815260040160405180910390fd5b8060000160009054906101000a900473ffffffffffffffffffffffffffffffffffffffff1673ffffffffffffffffffffffffffffffffffffffff163373ffffffffffffffffffffffffffffffffffffffff1603610ec5576040517f862db8b000000000000000000000000000000000000000000000000000000000815260040160405180910390fd5b60016004600088815260200190815260200160002060003373ffffffffffffffffffffffffffffffffffffffff1673ffffffffffffffffffffffffffffffffffffffff16815260200190815260200160002060006101000a81548160ff02191690831515021790555060016005600088815260200190815260200160002060008781526020019081526020016000206000828254610f639190611e70565b925050819055506001816005016000828254610f7f9190611e70565b925050819055508060070154600560008881526020019081526020016000206000878152602001908152602001600020541115610fed578481600601819055506005600087815260200190815260200160002060008681526020019081526020016000205481600701819055505b6004600087815260200190815260200160002060003373ffffffffffffffffffffffffffffffffffffffff1673ffffffffffffffffffffffffffffffffffffffff16815260200190815260200160002060009054906101000a900460ff1661105857611057611f5c565b5b3373ffffffffffffffffffffffffffffffffffffffff167f01674dedffd7377ed829cf5235cf829c93de67870b6eabca5cc4ccc21d9a54e7878360020188815481106110a7576110a6611ea4565b5b906000526020600020016040516110bf929190612024565b60405180910390a2505050506110d3611786565b5050565b60018054906101000a900473ffffffffffffffffffffffffffffffffffffffff1681565b60006111056116ff565b6000848490501161114b576040517f08c379a0000000000000000000000000000000000000000000000000000000008152600401611142906120c6565b60405180910390fd5b60008211801561115e575062093a808211155b61119d576040517f08c379a000000000000000000000000000000000000000000000000000000000815260040161119490612132565b60405180910390fd5b6002600081546111ac90612152565b9190508190555060006003600060025481526020019081526020016000209050338160000160006101000a81548173ffffffffffffffffffffffffffffffffffffffff021916908373ffffffffffffffffffffffffffffffffffffffff160217905550868682600101918261122292919061236b565b5060008160000160146101000a81548160ff0219169083600281111561124b5761124a611b95565b5b021790555082816004018190555060008160050181905550600081600601819055506000816007018190555060005b858590508110156112f3578160020186868381811061129c5761129b611ea4565b5b90506020028101906112ae919061244a565b909180600181540180825580915050600190039060005260206000200160009091929091929091929091925091826112e792919061236b565b5080600101905061127a565b50600660003373ffffffffffffffffffffffffffffffffffffffff1673ffffffffffffffffffffffffffffffffffffffff16815260200190815260200160002060025490806001815401808255809150506001900390600052602060002001600090919091909150553373ffffffffffffffffffffffffffffffffffffffff167f9158c4b8b7fff567a0a975ca3187331e08a50d8f2a1f04e986ac1e6e86e8212c6002546040516113a49190611e26565b60405180910390a260025491505095945050505050565b80600073ffffffffffffffffffffffffffffffffffffffff166003600083815260200190815260200160002060000160009054906101000a900473ffffffffffffffffffffffffffffffffffffffff1673ffffffffffffffffffffffffffffffffffffffff1603611458576040517fd956962900000000000000000000000000000000000000000000000000000000815260040160405180910390fd5b816003600082815260200190815260200160002060000160009054906101000a900473ffffffffffffffffffffffffffffffffffffffff1673ffffffffffffffffffffffffffffffffffffffff163373ffffffffffffffffffffffffffffffffffffffff16146114f4576040517f82b4290000000000000000000000000000000000000000000000000000000000815260040160405180910390fd5b6114fc6116ff565b60006003600085815260200190815260200160002090506000600281111561152757611526611b95565b5b8160000160149054906101000a900460ff16600281111561154b5761154a611b95565b5b14611582576040517f239918d800000000000000000000000000000000000000000000000000000000815260040160405180910390fd5b60008160030154146115c0576040517f239918d800000000000000000000000000000000000000000000000000000000815260040160405180910390fd5b42816003018190555060018160000160146101000a81548160ff021916908360028111156115f1576115f0611b95565b5b02179055507f51732ae67fd2997ca272de5336be6992bf61b902bb55ca6a2180bfdd92ce087e846040516116259190611e26565b60405180910390a150505050565b62093a8081565b611642611790565b6000600160006101000a81548160ff0219169083151502179055507f5db9ee0a495bf2e6ff9c91a7834c1ba4fdd244a5e8aa4e537bd38aeae4b073aa6116866117d0565b6040516116939190611cbb565b60405180910390a1565b6116a56116ff565b60018060006101000a81548160ff0219169083151502179055507f62e78cea01bee320cd4e420270b5ea74000d11b0c9f74754ebdbfc544b05a2586116e86117d0565b6040516116f59190611cbb565b60405180910390a1565b61170761062e565b1561173e576040517fd93c066500000000000000000000000000000000000000000000000000000000815260040160405180910390fd5b565b60026000540361177c576040517f3ee5aeb500000000000000000000000000000000000000000000000000000000815260040160405180910390fd5b6002600081905550565b6001600081905550565b61179861062e565b6117ce576040517f8dfc202b00000000000000000000000000000000000000000000000000000000815260040160405180910390fd5b565b600033905090565b600082825260208201905092915050565b7f5468697320636f6e747261637420646f6573206e6f742061636365707420706160008201527f796d656e74730000000000000000000000000000000000000000000000000000602082015250565b60006118456026836117d8565b9150611850826117e9565b604082019050919050565b6000602082019050818103600083015261187481611838565b9050919050565b7f496e76616c69642066756e6374696f6e2063616c6c0000000000000000000000600082015250565b60006118b16015836117d8565b91506118bc8261187b565b602082019050919050565b600060208201905081810360008301526118e0816118a4565b9050919050565b600080fd5b600080fd5b6000819050919050565b611904816118f1565b811461190f57600080fd5b50565b600081359050611921816118fb565b92915050565b60006020828403121561193d5761193c6118e7565b5b600061194b84828501611912565b91505092915050565b600081519050919050565b60005b8381101561197d578082015181840152602081019050611962565b60008484015250505050565b6000601f19601f8301169050919050565b60006119a582611954565b6119af81856117d8565b93506119bf81856020860161195f565b6119c881611989565b840191505092915050565b6119dc816118f1565b82525050565b600060408201905081810360008301526119fc818561199a565b9050611a0b60208301846119d3565b9392505050565b60008115159050919050565b611a2781611a12565b82525050565b6000602082019050611a426000830184611a1e565b92915050565b600073ffffffffffffffffffffffffffffffffffffffff82169050919050565b6000611a7382611a48565b9050919050565b611a8381611a68565b82525050565b600081519050919050565b600082825260208201905092915050565b6000819050602082019050919050565b600082825260208201905092915050565b6000611ad182611954565b611adb8185611ab5565b9350611aeb81856020860161195f565b611af481611989565b840191505092915050565b6000611b0b8383611ac6565b905092915050565b6000602082019050919050565b6000611b2b82611a89565b611b358185611a94565b935083602082028501611b4785611aa5565b8060005b85811015611b835784840389528151611b648582611aff565b9450611b6f83611b13565b925060208a01995050600181019050611b4b565b50829750879550505050505092915050565b7f4e487b7100000000000000000000000000000000000000000000000000000000600052602160045260246000fd5b60038110611bd557611bd4611b95565b5b50565b6000819050611be682611bc4565b919050565b6000611bf682611bd8565b9050919050565b611c0681611beb565b82525050565b600060c082019050611c216000830189611a7a565b8181036020830152611c33818861199a565b90508181036040830152611c478187611b20565b9050611c5660608301866119d3565b611c6360808301856119d3565b611c7060a0830184611bfd565b979650505050505050565b60008060408385031215611c9257611c916118e7565b5b6000611ca085828601611912565b9250506020611cb185828601611912565b9150509250929050565b6000602082019050611cd06000830184611a7a565b92915050565b600080fd5b600080fd5b600080fd5b60008083601f840112611cfb57611cfa611cd6565b5b8235905067ffffffffffffffff811115611d1857611d17611cdb565b5b602083019150836001820283011115611d3457611d33611ce0565b5b9250929050565b60008083601f840112611d5157611d50611cd6565b5b8235905067ffffffffffffffff811115611d6e57611d6d611cdb565b5b602083019150836020820283011115611d8a57611d89611ce0565b5b9250929050565b600080600080600060608688031215611dad57611dac6118e7565b5b600086013567ffffffffffffffff811115611dcb57611dca6118ec565b5b611dd788828901611ce5565b9550955050602086013567ffffffffffffffff811115611dfa57611df96118ec565b5b611e0688828901611d3b565b93509350506040611e1988828901611912565b9150509295509295909350565b6000602082019050611e3b60008301846119d3565b92915050565b7f4e487b7100000000000000000000000000000000000000000000000000000000600052601160045260246000fd5b6000611e7b826118f1565b9150611e86836118f1565b9250828201905080821115611e9e57611e9d611e41565b5b92915050565b7f4e487b7100000000000000000000000000000000000000000000000000000000600052603260045260246000fd5b7f4e487b7100000000000000000000000000000000000000000000000000000000600052602260045260246000fd5b60006002820490506001821680611f1a57607f821691505b602082108103611f2d57611f2c611ed3565b5b50919050565b6000604082019050611f4860008301856119d3565b611f5560208301846119d3565b9392505050565b7f4e487b7100000000000000000000000000000000000000000000000000000000600052600160045260246000fd5b60008190508160005260206000209050919050565b60008154611fad81611f02565b611fb781866117d8565b94506001821660008114611fd25760018114611fe85761201b565b60ff19831686528115156020028601935061201b565b611ff185611f8b565b60005b8381101561201357815481890152600182019150602081019050611ff4565b808801955050505b50505092915050565b600060408201905061203960008301856119d3565b818103602083015261204b8184611fa0565b90509392505050565b7f4174206c656173742074776f206d6f766965732061726520726571756972656460008201527f20666f722061207375727665792e000000000000000000000000000000000000602082015250565b60006120b0602e836117d8565b91506120bb82612054565b604082019050919050565b600060208201905081810360008301526120df816120a3565b9050919050565b7f496e76616c696420737572766579206475726174696f6e2e0000000000000000600082015250565b600061211c6018836117d8565b9150612127826120e6565b602082019050919050565b6000602082019050818103600083015261214b8161210f565b9050919050565b600061215d826118f1565b91507fffffffffffffffffffffffffffffffffffffffffffffffffffffffffffffffff820361218f5761218e611e41565b5b600182019050919050565b600082905092915050565b7f4e487b7100000000000000000000000000000000000000000000000000000000600052604160045260246000fd5b60006020601f8301049050919050565b600082821b905092915050565b6000600883026122217fffffffffffffffffffffffffffffffffffffffffffffffffffffffffffffffff826121e4565b61222b86836121e4565b95508019841693508086168417925050509392505050565b6000819050919050565b600061226861226361225e846118f1565b612243565b6118f1565b9050919050565b6000819050919050565b6122828361224d565b61229661228e8261226f565b8484546121f1565b825550505050565b600090565b6122ab61229e565b6122b6818484612279565b505050565b5b818110156122da576122cf6000826122a3565b6001810190506122bc565b5050565b601f82111561231f576122f081611f8b565b6122f9846121d4565b81016020851015612308578190505b61231c612314856121d4565b8301826122bb565b50505b505050565b600082821c905092915050565b600061234260001984600802612324565b1980831691505092915050565b600061235b8383612331565b9150826002028217905092915050565b612375838361219a565b67ffffffffffffffff81111561238e5761238d6121a5565b5b6123988254611f02565b6123a38282856122de565b6000601f8311600181146123d257600084156123c0578287013590505b6123ca858261234f565b865550612432565b601f1984166123e086611f8b565b60005b82811015612408578489013582556001820191506020850194506020810190506123e3565b868310156124255784890135612421601f891682612331565b8355505b6001600288020188555050505b50505050505050565b600080fd5b600080fd5b600080fd5b600080833560016020038436030381126124675761246661243b565b5b80840192508235915067ffffffffffffffff82111561248957612488612440565b5b6020830192506001820236038313156124a5576124a4612445565b5b50925092905056fea264697066735822122092ffb6e88c0160b2fce0fdf147bfe66f02d07ee434ae9815cbe2f7485ecf0c7e64736f6c634300081a0033",
          "opcodes": "PUSH1 0x80 PUSH1 0x40 MSTORE CALLVALUE DUP1 ISZERO PUSH1 0xF JUMPI PUSH1 0x0 DUP1 REVERT JUMPDEST POP PUSH1 0x1 PUSH1 0x0 DUP2 SWAP1 SSTORE POP PUSH1 0x0 PUSH1 0x1 PUSH1 0x0 PUSH2 0x100 EXP DUP2 SLOAD DUP2 PUSH1 0xFF MUL NOT AND SWAP1 DUP4 ISZERO ISZERO MUL OR SWAP1 SSTORE POP CALLER PUSH1 0x1 DUP1 PUSH2 0x100 EXP DUP2 SLOAD DUP2 PUSH20 0xFFFFFFFFFFFFFFFFFFFFFFFFFFFFFFFFFFFFFFFF MUL NOT AND SWAP1 DUP4 PUSH20 0xFFFFFFFFFFFFFFFFFFFFFFFFFFFFFFFFFFFFFFFF AND MUL OR SWAP1 SSTORE POP PUSH2 0x24E3 DUP1 PUSH2 0x82 PUSH1 0x0 CODECOPY PUSH1 0x0 RETURN INVALID PUSH1 0x80 PUSH1 0x40 MSTORE PUSH1 0x4 CALLDATASIZE LT PUSH2 0xA0 JUMPI PUSH1 0x0 CALLDATALOAD PUSH1 0xE0 SHR DUP1 PUSH4 0xA6C67233 GT PUSH2 0x64 JUMPI DUP1 PUSH4 0xA6C67233 EQ PUSH2 0x201 JUMPI DUP1 PUSH4 0xB384ABEF EQ PUSH2 0x22A JUMPI DUP1 PUSH4 0xCE606EE0 EQ PUSH2 0x253 JUMPI DUP1 PUSH4 0xDC70CEFC EQ PUSH2 0x27E JUMPI DUP1 PUSH4 0xF6DE78F5 EQ PUSH2 0x2BB JUMPI DUP1 PUSH4 0xFDF7258A EQ PUSH2 0x2E4 JUMPI PUSH2 0xE0 JUMP JUMPDEST DUP1 PUSH4 0x3F4BA83A EQ PUSH2 0x128 JUMPI DUP1 PUSH4 0x5154DF17 EQ PUSH2 0x13F JUMPI DUP1 PUSH4 0x5C975ABB EQ PUSH2 0x17D JUMPI DUP1 PUSH4 0x8456CB59 EQ PUSH2 0x1A8 JUMPI DUP1 PUSH4 0x89670E15 EQ PUSH2 0x1BF JUMPI PUSH2 0xE0 JUMP JUMPDEST CALLDATASIZE PUSH2 0xE0 JUMPI PUSH1 0x40 MLOAD PUSH32 0x8C379A000000000000000000000000000000000000000000000000000000000 DUP2 MSTORE PUSH1 0x4 ADD PUSH2 0xD7 SWAP1 PUSH2 0x185B JUMP JUMPDEST PUSH1 0x40 MLOAD DUP1 SWAP2 SUB SWAP1 REVERT JUMPDEST CALLVALUE DUP1 ISZERO PUSH2 0xEC JUMPI PUSH1 0x0 DUP1 REVERT JUMPDEST POP PUSH1 0x40 MLOAD PUSH32 0x8C379A000000000000000000000000000000000000000000000000000000000 DUP2 MSTORE PUSH1 0x4 ADD PUSH2 0x11F SWAP1 PUSH2 0x18C7 JUMP JUMPDEST PUSH1 0x40 MLOAD DUP1 SWAP2 SUB SWAP1 REVERT JUMPDEST CALLVALUE DUP1 ISZERO PUSH2 0x134 JUMPI PUSH1 0x0 DUP1 REVERT JUMPDEST POP PUSH2 0x13D PUSH2 0x30F JUMP JUMPDEST STOP JUMPDEST CALLVALUE DUP1 ISZERO PUSH2 0x14B JUMPI PUSH1 0x0 DUP1 REVERT JUMPDEST POP PUSH2 0x166 PUSH1 0x4 DUP1 CALLDATASIZE SUB DUP2 ADD SWAP1 PUSH2 0x161 SWAP2 SWAP1 PUSH2 0x1927 JUMP JUMPDEST PUSH2 0x3E1 JUMP JUMPDEST PUSH1 0x40 MLOAD PUSH2 0x174 SWAP3 SWAP2 SWAP1 PUSH2 0x19E2 JUMP JUMPDEST PUSH1 0x40 MLOAD DUP1 SWAP2 SUB SWAP1 RETURN JUMPDEST CALLVALUE DUP1 ISZERO PUSH2 0x189 JUMPI PUSH1 0x0 DUP1 REVERT JUMPDEST POP PUSH2 0x192 PUSH2 0x62E JUMP JUMPDEST PUSH1 0x40 MLOAD PUSH2 0x19F SWAP2 SWAP1 PUSH2 0x1A2D JUMP JUMPDEST PUSH1 0x40 MLOAD DUP1 SWAP2 SUB SWAP1 RETURN JUMPDEST CALLVALUE DUP1 ISZERO PUSH2 0x1B4 JUMPI PUSH1 0x0 DUP1 REVERT JUMPDEST POP PUSH2 0x1BD PUSH2 0x645 JUMP JUMPDEST STOP JUMPDEST CALLVALUE DUP1 ISZERO PUSH2 0x1CB JUMPI PUSH1 0x0 DUP1 REVERT JUMPDEST POP PUSH2 0x1E6 PUSH1 0x4 DUP1 CALLDATASIZE SUB DUP2 ADD SWAP1 PUSH2 0x1E1 SWAP2 SWAP1 PUSH2 0x1927 JUMP JUMPDEST PUSH2 0x717 JUMP JUMPDEST PUSH1 0x40 MLOAD PUSH2 0x1F8 SWAP7 SWAP6 SWAP5 SWAP4 SWAP3 SWAP2 SWAP1 PUSH2 0x1C0C JUMP JUMPDEST PUSH1 0x40 MLOAD DUP1 SWAP2 SUB SWAP1 RETURN JUMPDEST CALLVALUE DUP1 ISZERO PUSH2 0x20D JUMPI PUSH1 0x0 DUP1 REVERT JUMPDEST POP PUSH2 0x228 PUSH1 0x4 DUP1 CALLDATASIZE SUB DUP2 ADD SWAP1 PUSH2 0x223 SWAP2 SWAP1 PUSH2 0x1927 JUMP JUMPDEST PUSH2 0x994 JUMP JUMPDEST STOP JUMPDEST CALLVALUE DUP1 ISZERO PUSH2 0x236 JUMPI PUSH1 0x0 DUP1 REVERT JUMPDEST POP PUSH2 0x251 PUSH1 0x4 DUP1 CALLDATASIZE SUB DUP2 ADD SWAP1 PUSH2 0x24C SWAP2 SWAP1 PUSH2 0x1C7B JUMP JUMPDEST PUSH2 0xBD0 JUMP JUMPDEST STOP JUMPDEST CALLVALUE DUP1 ISZERO PUSH2 0x25F JUMPI PUSH1 0x0 DUP1 REVERT JUMPDEST POP PUSH2 0x268 PUSH2 0x10D7 JUMP JUMPDEST PUSH1 0x40 MLOAD PUSH2 0x275 SWAP2 SWAP1 PUSH2 0x1CBB JUMP JUMPDEST PUSH1 0x40 MLOAD DUP1 SWAP2 SUB SWAP1 RETURN JUMPDEST CALLVALUE DUP1 ISZERO PUSH2 0x28A JUMPI PUSH1 0x0 DUP1 REVERT JUMPDEST POP PUSH2 0x2A5 PUSH1 0x4 DUP1 CALLDATASIZE SUB DUP2 ADD SWAP1 PUSH2 0x2A0 SWAP2 SWAP1 PUSH2 0x1D91 JUMP JUMPDEST PUSH2 0x10FB JUMP JUMPDEST PUSH1 0x40 MLOAD PUSH2 0x2B2 SWAP2 SWAP1 PUSH2 0x1E26 JUMP JUMPDEST PUSH1 0x40 MLOAD DUP1 SWAP2 SUB SWAP1 RETURN JUMPDEST CALLVALUE DUP1 ISZERO PUSH2 0x2C7 JUMPI PUSH1 0x0 DUP1 REVERT JUMPDEST POP PUSH2 0x2E2 PUSH1 0x4 DUP1 CALLDATASIZE SUB DUP2 ADD SWAP1 PUSH2 0x2DD SWAP2 SWAP1 PUSH2 0x1927 JUMP JUMPDEST PUSH2 0x13BB JUMP JUMPDEST STOP JUMPDEST CALLVALUE DUP1 ISZERO PUSH2 0x2F0 JUMPI PUSH1 0x0 DUP1 REVERT JUMPDEST POP PUSH2 0x2F9 PUSH2 0x1633 JUMP JUMPDEST PUSH1 0x40 MLOAD PUSH2 0x306 SWAP2 SWAP1 PUSH2 0x1E26 JUMP JUMPDEST PUSH1 0x40 MLOAD DUP1 SWAP2 SUB SWAP1 RETURN JUMPDEST PUSH1 0x1 DUP1 SLOAD SWAP1 PUSH2 0x100 EXP SWAP1 DIV PUSH20 0xFFFFFFFFFFFFFFFFFFFFFFFFFFFFFFFFFFFFFFFF AND PUSH20 0xFFFFFFFFFFFFFFFFFFFFFFFFFFFFFFFFFFFFFFFF AND CALLER PUSH20 0xFFFFFFFFFFFFFFFFFFFFFFFFFFFFFFFFFFFFFFFF AND EQ PUSH2 0x394 JUMPI PUSH1 0x40 MLOAD PUSH32 0x82B4290000000000000000000000000000000000000000000000000000000000 DUP2 MSTORE PUSH1 0x4 ADD PUSH1 0x40 MLOAD DUP1 SWAP2 SUB SWAP1 REVERT JUMPDEST PUSH2 0x39C PUSH2 0x163A JUMP JUMPDEST CALLER PUSH20 0xFFFFFFFFFFFFFFFFFFFFFFFFFFFFFFFFFFFFFFFF AND PUSH32 0x5B65B0C1363B3003DB9BCC5E1FD8805A6D6BF5BF6DC9D3431EE4494CD7D11766 PUSH1 0x40 MLOAD PUSH1 0x40 MLOAD DUP1 SWAP2 SUB SWAP1 LOG2 JUMP JUMPDEST PUSH1 0x60 PUSH1 0x0 DUP3 PUSH1 0x0 PUSH20 0xFFFFFFFFFFFFFFFFFFFFFFFFFFFFFFFFFFFFFFFF AND PUSH1 0x3 PUSH1 0x0 DUP4 DUP2 MSTORE PUSH1 0x20 ADD SWAP1 DUP2 MSTORE PUSH1 0x20 ADD PUSH1 0x0 KECCAK256 PUSH1 0x0 ADD PUSH1 0x0 SWAP1 SLOAD SWAP1 PUSH2 0x100 EXP SWAP1 DIV PUSH20 0xFFFFFFFFFFFFFFFFFFFFFFFFFFFFFFFFFFFFFFFF AND PUSH20 0xFFFFFFFFFFFFFFFFFFFFFFFFFFFFFFFFFFFFFFFF AND SUB PUSH2 0x482 JUMPI PUSH1 0x40 MLOAD PUSH32 0xD956962900000000000000000000000000000000000000000000000000000000 DUP2 MSTORE PUSH1 0x4 ADD PUSH1 0x40 MLOAD DUP1 SWAP2 SUB SWAP1 REVERT JUMPDEST DUP4 PUSH1 0x0 PUSH1 0x3 PUSH1 0x0 DUP4 DUP2 MSTORE PUSH1 0x20 ADD SWAP1 DUP2 MSTORE PUSH1 0x20 ADD PUSH1 0x0 KECCAK256 SWAP1 POP PUSH1 0x1 PUSH1 0x2 DUP2 GT ISZERO PUSH2 0x4AE JUMPI PUSH2 0x4AD PUSH2 0x1B95 JUMP JUMPDEST JUMPDEST DUP2 PUSH1 0x0 ADD PUSH1 0x14 SWAP1 SLOAD SWAP1 PUSH2 0x100 EXP SWAP1 DIV PUSH1 0xFF AND PUSH1 0x2 DUP2 GT ISZERO PUSH2 0x4D2 JUMPI PUSH2 0x4D1 PUSH2 0x1B95 JUMP JUMPDEST JUMPDEST EQ PUSH2 0x509 JUMPI PUSH1 0x40 MLOAD PUSH32 0xBE02BAFD00000000000000000000000000000000000000000000000000000000 DUP2 MSTORE PUSH1 0x4 ADD PUSH1 0x40 MLOAD DUP1 SWAP2 SUB SWAP1 REVERT JUMPDEST TIMESTAMP DUP2 PUSH1 0x4 ADD SLOAD DUP3 PUSH1 0x3 ADD SLOAD PUSH2 0x51E SWAP2 SWAP1 PUSH2 0x1E70 JUMP JUMPDEST GT PUSH2 0x555 JUMPI PUSH1 0x40 MLOAD PUSH32 0x90BEE62D00000000000000000000000000000000000000000000000000000000 DUP2 MSTORE PUSH1 0x4 ADD PUSH1 0x40 MLOAD DUP1 SWAP2 SUB SWAP1 REVERT JUMPDEST PUSH1 0x0 PUSH1 0x3 PUSH1 0x0 DUP9 DUP2 MSTORE PUSH1 0x20 ADD SWAP1 DUP2 MSTORE PUSH1 0x20 ADD PUSH1 0x0 KECCAK256 SWAP1 POP DUP1 PUSH1 0x2 ADD DUP2 PUSH1 0x6 ADD SLOAD DUP2 SLOAD DUP2 LT PUSH2 0x586 JUMPI PUSH2 0x585 PUSH2 0x1EA4 JUMP JUMPDEST JUMPDEST SWAP1 PUSH1 0x0 MSTORE PUSH1 0x20 PUSH1 0x0 KECCAK256 ADD DUP2 PUSH1 0x7 ADD SLOAD DUP2 DUP1 SLOAD PUSH2 0x5A1 SWAP1 PUSH2 0x1F02 JUMP JUMPDEST DUP1 PUSH1 0x1F ADD PUSH1 0x20 DUP1 SWAP2 DIV MUL PUSH1 0x20 ADD PUSH1 0x40 MLOAD SWAP1 DUP2 ADD PUSH1 0x40 MSTORE DUP1 SWAP3 SWAP2 SWAP1 DUP2 DUP2 MSTORE PUSH1 0x20 ADD DUP3 DUP1 SLOAD PUSH2 0x5CD SWAP1 PUSH2 0x1F02 JUMP JUMPDEST DUP1 ISZERO PUSH2 0x61A JUMPI DUP1 PUSH1 0x1F LT PUSH2 0x5EF JUMPI PUSH2 0x100 DUP1 DUP4 SLOAD DIV MUL DUP4 MSTORE SWAP2 PUSH1 0x20 ADD SWAP2 PUSH2 0x61A JUMP JUMPDEST DUP3 ADD SWAP2 SWAP1 PUSH1 0x0 MSTORE PUSH1 0x20 PUSH1 0x0 KECCAK256 SWAP1 JUMPDEST DUP2 SLOAD DUP2 MSTORE SWAP1 PUSH1 0x1 ADD SWAP1 PUSH1 0x20 ADD DUP1 DUP4 GT PUSH2 0x5FD JUMPI DUP3 SWAP1 SUB PUSH1 0x1F AND DUP3 ADD SWAP2 JUMPDEST POP POP POP POP POP SWAP2 POP SWAP6 POP SWAP6 POP POP POP POP POP SWAP2 POP SWAP2 JUMP JUMPDEST PUSH1 0x0 PUSH1 0x1 PUSH1 0x0 SWAP1 SLOAD SWAP1 PUSH2 0x100 EXP SWAP1 DIV PUSH1 0xFF AND SWAP1 POP SWAP1 JUMP JUMPDEST PUSH1 0x1 DUP1 SLOAD SWAP1 PUSH2 0x100 EXP SWAP1 DIV PUSH20 0xFFFFFFFFFFFFFFFFFFFFFFFFFFFFFFFFFFFFFFFF AND PUSH20 0xFFFFFFFFFFFFFFFFFFFFFFFFFFFFFFFFFFFFFFFF AND CALLER PUSH20 0xFFFFFFFFFFFFFFFFFFFFFFFFFFFFFFFFFFFFFFFF AND EQ PUSH2 0x6CA JUMPI PUSH1 0x40 MLOAD PUSH32 0x82B4290000000000000000000000000000000000000000000000000000000000 DUP2 MSTORE PUSH1 0x4 ADD PUSH1 0x40 MLOAD DUP1 SWAP2 SUB SWAP1 REVERT JUMPDEST PUSH2 0x6D2 PUSH2 0x169D JUMP JUMPDEST CALLER PUSH20 0xFFFFFFFFFFFFFFFFFFFFFFFFFFFFFFFFFFFFFFFF AND PUSH32 0x81990FD9A5C552B8E3677917D8A03C07678F0D2CB68F88B634ACA2022E9BD19F PUSH1 0x40 MLOAD PUSH1 0x40 MLOAD DUP1 SWAP2 SUB SWAP1 LOG2 JUMP JUMPDEST PUSH1 0x0 PUSH1 0x60 DUP1 PUSH1 0x0 DUP1 PUSH1 0x0 DUP7 PUSH1 0x0 PUSH20 0xFFFFFFFFFFFFFFFFFFFFFFFFFFFFFFFFFFFFFFFF AND PUSH1 0x3 PUSH1 0x0 DUP4 DUP2 MSTORE PUSH1 0x20 ADD SWAP1 DUP2 MSTORE PUSH1 0x20 ADD PUSH1 0x0 KECCAK256 PUSH1 0x0 ADD PUSH1 0x0 SWAP1 SLOAD SWAP1 PUSH2 0x100 EXP SWAP1 DIV PUSH20 0xFFFFFFFFFFFFFFFFFFFFFFFFFFFFFFFFFFFFFFFF AND PUSH20 0xFFFFFFFFFFFFFFFFFFFFFFFFFFFFFFFFFFFFFFFF AND SUB PUSH2 0x7BE JUMPI PUSH1 0x40 MLOAD PUSH32 0xD956962900000000000000000000000000000000000000000000000000000000 DUP2 MSTORE PUSH1 0x4 ADD PUSH1 0x40 MLOAD DUP1 SWAP2 SUB SWAP1 REVERT JUMPDEST PUSH1 0x0 PUSH1 0x3 PUSH1 0x0 DUP11 DUP2 MSTORE PUSH1 0x20 ADD SWAP1 DUP2 MSTORE PUSH1 0x20 ADD PUSH1 0x0 KECCAK256 SWAP1 POP DUP1 PUSH1 0x0 ADD PUSH1 0x0 SWAP1 SLOAD SWAP1 PUSH2 0x100 EXP SWAP1 DIV PUSH20 0xFFFFFFFFFFFFFFFFFFFFFFFFFFFFFFFFFFFFFFFF AND DUP2 PUSH1 0x1 ADD DUP3 PUSH1 0x2 ADD DUP4 PUSH1 0x3 ADD SLOAD DUP5 PUSH1 0x4 ADD SLOAD DUP6 PUSH1 0x0 ADD PUSH1 0x14 SWAP1 SLOAD SWAP1 PUSH2 0x100 EXP SWAP1 DIV PUSH1 0xFF AND DUP5 DUP1 SLOAD PUSH2 0x82A SWAP1 PUSH2 0x1F02 JUMP JUMPDEST DUP1 PUSH1 0x1F ADD PUSH1 0x20 DUP1 SWAP2 DIV MUL PUSH1 0x20 ADD PUSH1 0x40 MLOAD SWAP1 DUP2 ADD PUSH1 0x40 MSTORE DUP1 SWAP3 SWAP2 SWAP1 DUP2 DUP2 MSTORE PUSH1 0x20 ADD DUP3 DUP1 SLOAD PUSH2 0x856 SWAP1 PUSH2 0x1F02 JUMP JUMPDEST DUP1 ISZERO PUSH2 0x8A3 JUMPI DUP1 PUSH1 0x1F LT PUSH2 0x878 JUMPI PUSH2 0x100 DUP1 DUP4 SLOAD DIV MUL DUP4 MSTORE SWAP2 PUSH1 0x20 ADD SWAP2 PUSH2 0x8A3 JUMP JUMPDEST DUP3 ADD SWAP2 SWAP1 PUSH1 0x0 MSTORE PUSH1 0x20 PUSH1 0x0 KECCAK256 SWAP1 JUMPDEST DUP2 SLOAD DUP2 MSTORE SWAP1 PUSH1 0x1 ADD SWAP1 PUSH1 0x20 ADD DUP1 DUP4 GT PUSH2 0x886 JUMPI DUP3 SWAP1 SUB PUSH1 0x1F AND DUP3 ADD SWAP2 JUMPDEST POP POP POP POP POP SWAP5 POP DUP4 DUP1 SLOAD DUP1 PUSH1 0x20 MUL PUSH1 0x20 ADD PUSH1 0x40 MLOAD SWAP1 DUP2 ADD PUSH1 0x40 MSTORE DUP1 SWAP3 SWAP2 SWAP1 DUP2 DUP2 MSTORE PUSH1 0x20 ADD PUSH1 0x0 SWAP1 JUMPDEST DUP3 DUP3 LT ISZERO PUSH2 0x977 JUMPI DUP4 DUP3 SWAP1 PUSH1 0x0 MSTORE PUSH1 0x20 PUSH1 0x0 KECCAK256 ADD DUP1 SLOAD PUSH2 0x8EA SWAP1 PUSH2 0x1F02 JUMP JUMPDEST DUP1 PUSH1 0x1F ADD PUSH1 0x20 DUP1 SWAP2 DIV MUL PUSH1 0x20 ADD PUSH1 0x40 MLOAD SWAP1 DUP2 ADD PUSH1 0x40 MSTORE DUP1 SWAP3 SWAP2 SWAP1 DUP2 DUP2 MSTORE PUSH1 0x20 ADD DUP3 DUP1 SLOAD PUSH2 0x916 SWAP1 PUSH2 0x1F02 JUMP JUMPDEST DUP1 ISZERO PUSH2 0x963 JUMPI DUP1 PUSH1 0x1F LT PUSH2 0x938 JUMPI PUSH2 0x100 DUP1 DUP4 SLOAD DIV MUL DUP4 MSTORE SWAP2 PUSH1 0x20 ADD SWAP2 PUSH2 0x963 JUMP JUMPDEST DUP3 ADD SWAP2 SWAP1 PUSH1 0x0 MSTORE PUSH1 0x20 PUSH1 0x0 KECCAK256 SWAP1 JUMPDEST DUP2 SLOAD DUP2 MSTORE SWAP1 PUSH1 0x1 ADD SWAP1 PUSH1 0x20 ADD DUP1 DUP4 GT PUSH2 0x946 JUMPI DUP3 SWAP1 SUB PUSH1 0x1F AND DUP3 ADD SWAP2 JUMPDEST POP POP POP POP POP DUP2 MSTORE PUSH1 0x20 ADD SWAP1 PUSH1 0x1 ADD SWAP1 PUSH2 0x8CB JUMP JUMPDEST POP POP POP POP SWAP4 POP SWAP8 POP SWAP8 POP SWAP8 POP SWAP8 POP SWAP8 POP SWAP8 POP POP POP SWAP2 SWAP4 SWAP6 POP SWAP2 SWAP4 SWAP6 JUMP JUMPDEST DUP1 PUSH1 0x0 PUSH20 0xFFFFFFFFFFFFFFFFFFFFFFFFFFFFFFFFFFFFFFFF AND PUSH1 0x3 PUSH1 0x0 DUP4 DUP2 MSTORE PUSH1 0x20 ADD SWAP1 DUP2 MSTORE PUSH1 0x20 ADD PUSH1 0x0 KECCAK256 PUSH1 0x0 ADD PUSH1 0x0 SWAP1 SLOAD SWAP1 PUSH2 0x100 EXP SWAP1 DIV PUSH20 0xFFFFFFFFFFFFFFFFFFFFFFFFFFFFFFFFFFFFFFFF AND PUSH20 0xFFFFFFFFFFFFFFFFFFFFFFFFFFFFFFFFFFFFFFFF AND SUB PUSH2 0xA31 JUMPI PUSH1 0x40 MLOAD PUSH32 0xD956962900000000000000000000000000000000000000000000000000000000 DUP2 MSTORE PUSH1 0x4 ADD PUSH1 0x40 MLOAD DUP1 SWAP2 SUB SWAP1 REVERT JUMPDEST PUSH2 0xA39 PUSH2 0x16FF JUMP JUMPDEST DUP2 PUSH1 0x3 PUSH1 0x0 DUP3 DUP2 MSTORE PUSH1 0x20 ADD SWAP1 DUP2 MSTORE PUSH1 0x20 ADD PUSH1 0x0 KECCAK256 PUSH1 0x0 ADD PUSH1 0x0 SWAP1 SLOAD SWAP1 PUSH2 0x100 EXP SWAP1 DIV PUSH20 0xFFFFFFFFFFFFFFFFFFFFFFFFFFFFFFFFFFFFFFFF AND PUSH20 0xFFFFFFFFFFFFFFFFFFFFFFFFFFFFFFFFFFFFFFFF AND CALLER PUSH20 0xFFFFFFFFFFFFFFFFFFFFFFFFFFFFFFFFFFFFFFFF AND EQ PUSH2 0xAD5 JUMPI PUSH1 0x40 MLOAD PUSH32 0x82B4290000000000000000000000000000000000000000000000000000000000 DUP2 MSTORE PUSH1 0x4 ADD PUSH1 0x40 MLOAD DUP1 SWAP2 SUB SWAP1 REVERT JUMPDEST PUSH1 0x0 PUSH1 0x3 PUSH1 0x0 DUP6 DUP2 MSTORE PUSH1 0x20 ADD SWAP1 DUP2 MSTORE PUSH1 0x20 ADD PUSH1 0x0 KECCAK256 SWAP1 POP PUSH1 0x1 PUSH1 0x2 DUP2 GT ISZERO PUSH2 0xB00 JUMPI PUSH2 0xAFF PUSH2 0x1B95 JUMP JUMPDEST JUMPDEST DUP2 PUSH1 0x0 ADD PUSH1 0x14 SWAP1 SLOAD SWAP1 PUSH2 0x100 EXP SWAP1 DIV PUSH1 0xFF AND PUSH1 0x2 DUP2 GT ISZERO PUSH2 0xB24 JUMPI PUSH2 0xB23 PUSH2 0x1B95 JUMP JUMPDEST JUMPDEST EQ PUSH2 0xB5B JUMPI PUSH1 0x40 MLOAD PUSH32 0xBE02BAFD00000000000000000000000000000000000000000000000000000000 DUP2 MSTORE PUSH1 0x4 ADD PUSH1 0x40 MLOAD DUP1 SWAP2 SUB SWAP1 REVERT JUMPDEST PUSH1 0x2 DUP2 PUSH1 0x0 ADD PUSH1 0x14 PUSH2 0x100 EXP DUP2 SLOAD DUP2 PUSH1 0xFF MUL NOT AND SWAP1 DUP4 PUSH1 0x2 DUP2 GT ISZERO PUSH2 0xB83 JUMPI PUSH2 0xB82 PUSH2 0x1B95 JUMP JUMPDEST JUMPDEST MUL OR SWAP1 SSTORE POP DUP4 PUSH32 0x6C8AF3395E52E06B82FB64D66EBA89436B4DB530D05C84329E3F1D1CC2BFE345 DUP3 PUSH1 0x6 ADD SLOAD DUP4 PUSH1 0x7 ADD SLOAD PUSH1 0x40 MLOAD PUSH2 0xBC2 SWAP3 SWAP2 SWAP1 PUSH2 0x1F33 JUMP JUMPDEST PUSH1 0x40 MLOAD DUP1 SWAP2 SUB SWAP1 LOG2 POP POP POP POP JUMP JUMPDEST PUSH2 0xBD8 PUSH2 0x1740 JUMP JUMPDEST PUSH2 0xBE0 PUSH2 0x16FF JUMP JUMPDEST DUP2 PUSH1 0x0 PUSH20 0xFFFFFFFFFFFFFFFFFFFFFFFFFFFFFFFFFFFFFFFF AND PUSH1 0x3 PUSH1 0x0 DUP4 DUP2 MSTORE PUSH1 0x20 ADD SWAP1 DUP2 MSTORE PUSH1 0x20 ADD PUSH1 0x0 KECCAK256 PUSH1 0x0 ADD PUSH1 0x0 SWAP1 SLOAD SWAP1 PUSH2 0x100 EXP SWAP1 DIV PUSH20 0xFFFFFFFFFFFFFFFFFFFFFFFFFFFFFFFFFFFFFFFF AND PUSH20 0xFFFFFFFFFFFFFFFFFFFFFFFFFFFFFFFFFFFFFFFF AND SUB PUSH2 0xC7D JUMPI PUSH1 0x40 MLOAD PUSH32 0xD956962900000000000000000000000000000000000000000000000000000000 DUP2 MSTORE PUSH1 0x4 ADD PUSH1 0x40 MLOAD DUP1 SWAP2 SUB SWAP1 REVERT JUMPDEST DUP3 PUSH1 0x0 PUSH1 0x3 PUSH1 0x0 DUP4 DUP2 MSTORE PUSH1 0x20 ADD SWAP1 DUP2 MSTORE PUSH1 0x20 ADD PUSH1 0x0 KECCAK256 SWAP1 POP PUSH1 0x1 PUSH1 0x2 DUP2 GT ISZERO PUSH2 0xCA9 JUMPI PUSH2 0xCA8 PUSH2 0x1B95 JUMP JUMPDEST JUMPDEST DUP2 PUSH1 0x0 ADD PUSH1 0x14 SWAP1 SLOAD SWAP1 PUSH2 0x100 EXP SWAP1 DIV PUSH1 0xFF AND PUSH1 0x2 DUP2 GT ISZERO PUSH2 0xCCD JUMPI PUSH2 0xCCC PUSH2 0x1B95 JUMP JUMPDEST JUMPDEST EQ PUSH2 0xD04 JUMPI PUSH1 0x40 MLOAD PUSH32 0xBE02BAFD00000000000000000000000000000000000000000000000000000000 DUP2 MSTORE PUSH1 0x4 ADD PUSH1 0x40 MLOAD DUP1 SWAP2 SUB SWAP1 REVERT JUMPDEST TIMESTAMP DUP2 PUSH1 0x4 ADD SLOAD DUP3 PUSH1 0x3 ADD SLOAD PUSH2 0xD19 SWAP2 SWAP1 PUSH2 0x1E70 JUMP JUMPDEST GT PUSH2 0xD50 JUMPI PUSH1 0x40 MLOAD PUSH32 0x90BEE62D00000000000000000000000000000000000000000000000000000000 DUP2 MSTORE PUSH1 0x4 ADD PUSH1 0x40 MLOAD DUP1 SWAP2 SUB SWAP1 REVERT JUMPDEST PUSH1 0x0 PUSH1 0x3 PUSH1 0x0 DUP8 DUP2 MSTORE PUSH1 0x20 ADD SWAP1 DUP2 MSTORE PUSH1 0x20 ADD PUSH1 0x0 KECCAK256 SWAP1 POP DUP1 PUSH1 0x2 ADD DUP1 SLOAD SWAP1 POP DUP6 LT PUSH2 0xDA7 JUMPI PUSH1 0x40 MLOAD PUSH32 0x111B8D9100000000000000000000000000000000000000000000000000000000 DUP2 MSTORE PUSH1 0x4 ADD PUSH1 0x40 MLOAD DUP1 SWAP2 SUB SWAP1 REVERT JUMPDEST PUSH1 0x4 PUSH1 0x0 DUP8 DUP2 MSTORE PUSH1 0x20 ADD SWAP1 DUP2 MSTORE PUSH1 0x20 ADD PUSH1 0x0 KECCAK256 PUSH1 0x0 CALLER PUSH20 0xFFFFFFFFFFFFFFFFFFFFFFFFFFFFFFFFFFFFFFFF AND PUSH20 0xFFFFFFFFFFFFFFFFFFFFFFFFFFFFFFFFFFFFFFFF AND DUP2 MSTORE PUSH1 0x20 ADD SWAP1 DUP2 MSTORE PUSH1 0x20 ADD PUSH1 0x0 KECCAK256 PUSH1 0x0 SWAP1 SLOAD SWAP1 PUSH2 0x100 EXP SWAP1 DIV PUSH1 0xFF AND ISZERO PUSH2 0xE3C JUMPI PUSH1 0x40 MLOAD PUSH32 0x7C9A1CF900000000000000000000000000000000000000000000000000000000 DUP2 MSTORE PUSH1 0x4 ADD PUSH1 0x40 MLOAD DUP1 SWAP2 SUB SWAP1 REVERT JUMPDEST DUP1 PUSH1 0x0 ADD PUSH1 0x0 SWAP1 SLOAD SWAP1 PUSH2 0x100 EXP SWAP1 DIV PUSH20 0xFFFFFFFFFFFFFFFFFFFFFFFFFFFFFFFFFFFFFFFF AND PUSH20 0xFFFFFFFFFFFFFFFFFFFFFFFFFFFFFFFFFFFFFFFF AND CALLER PUSH20 0xFFFFFFFFFFFFFFFFFFFFFFFFFFFFFFFFFFFFFFFF AND SUB PUSH2 0xEC5 JUMPI PUSH1 0x40 MLOAD PUSH32 0x862DB8B000000000000000000000000000000000000000000000000000000000 DUP2 MSTORE PUSH1 0x4 ADD PUSH1 0x40 MLOAD DUP1 SWAP2 SUB SWAP1 REVERT JUMPDEST PUSH1 0x1 PUSH1 0x4 PUSH1 0x0 DUP9 DUP2 MSTORE PUSH1 0x20 ADD SWAP1 DUP2 MSTORE PUSH1 0x20 ADD PUSH1 0x0 KECCAK256 PUSH1 0x0 CALLER PUSH20 0xFFFFFFFFFFFFFFFFFFFFFFFFFFFFFFFFFFFFFFFF AND PUSH20 0xFFFFFFFFFFFFFFFFFFFFFFFFFFFFFFFFFFFFFFFF AND DUP2 MSTORE PUSH1 0x20 ADD SWAP1 DUP2 MSTORE PUSH1 0x20 ADD PUSH1 0x0 KECCAK256 PUSH1 0x0 PUSH2 0x100 EXP DUP2 SLOAD DUP2 PUSH1 0xFF MUL NOT AND SWAP1 DUP4 ISZERO ISZERO MUL OR SWAP1 SSTORE POP PUSH1 0x1 PUSH1 0x5 PUSH1 0x0 DUP9 DUP2 MSTORE PUSH1 0x20 ADD SWAP1 DUP2 MSTORE PUSH1 0x20 ADD PUSH1 0x0 KECCAK256 PUSH1 0x0 DUP8 DUP2 MSTORE PUSH1 0x20 ADD SWAP1 DUP2 MSTORE PUSH1 0x20 ADD PUSH1 0x0 KECCAK256 PUSH1 0x0 DUP3 DUP3 SLOAD PUSH2 0xF63 SWAP2 SWAP1 PUSH2 0x1E70 JUMP JUMPDEST SWAP3 POP POP DUP2 SWAP1 SSTORE POP PUSH1 0x1 DUP2 PUSH1 0x5 ADD PUSH1 0x0 DUP3 DUP3 SLOAD PUSH2 0xF7F SWAP2 SWAP1 PUSH2 0x1E70 JUMP JUMPDEST SWAP3 POP POP DUP2 SWAP1 SSTORE POP DUP1 PUSH1 0x7 ADD SLOAD PUSH1 0x5 PUSH1 0x0 DUP9 DUP2 MSTORE PUSH1 0x20 ADD SWAP1 DUP2 MSTORE PUSH1 0x20 ADD PUSH1 0x0 KECCAK256 PUSH1 0x0 DUP8 DUP2 MSTORE PUSH1 0x20 ADD SWAP1 DUP2 MSTORE PUSH1 0x20 ADD PUSH1 0x0 KECCAK256 SLOAD GT ISZERO PUSH2 0xFED JUMPI DUP5 DUP2 PUSH1 0x6 ADD DUP2 SWAP1 SSTORE POP PUSH1 0x5 PUSH1 0x0 DUP8 DUP2 MSTORE PUSH1 0x20 ADD SWAP1 DUP2 MSTORE PUSH1 0x20 ADD PUSH1 0x0 KECCAK256 PUSH1 0x0 DUP7 DUP2 MSTORE PUSH1 0x20 ADD SWAP1 DUP2 MSTORE PUSH1 0x20 ADD PUSH1 0x0 KECCAK256 SLOAD DUP2 PUSH1 0x7 ADD DUP2 SWAP1 SSTORE POP JUMPDEST PUSH1 0x4 PUSH1 0x0 DUP8 DUP2 MSTORE PUSH1 0x20 ADD SWAP1 DUP2 MSTORE PUSH1 0x20 ADD PUSH1 0x0 KECCAK256 PUSH1 0x0 CALLER PUSH20 0xFFFFFFFFFFFFFFFFFFFFFFFFFFFFFFFFFFFFFFFF AND PUSH20 0xFFFFFFFFFFFFFFFFFFFFFFFFFFFFFFFFFFFFFFFF AND DUP2 MSTORE PUSH1 0x20 ADD SWAP1 DUP2 MSTORE PUSH1 0x20 ADD PUSH1 0x0 KECCAK256 PUSH1 0x0 SWAP1 SLOAD SWAP1 PUSH2 0x100 EXP SWAP1 DIV PUSH1 0xFF AND PUSH2 0x1058 JUMPI PUSH2 0x1057 PUSH2 0x1F5C JUMP JUMPDEST JUMPDEST CALLER PUSH20 0xFFFFFFFFFFFFFFFFFFFFFFFFFFFFFFFFFFFFFFFF AND PUSH32 0x1674DEDFFD7377ED829CF5235CF829C93DE67870B6EABCA5CC4CCC21D9A54E7 DUP8 DUP4 PUSH1 0x2 ADD DUP9 DUP2 SLOAD DUP2 LT PUSH2 0x10A7 JUMPI PUSH2 0x10A6 PUSH2 0x1EA4 JUMP JUMPDEST JUMPDEST SWAP1 PUSH1 0x0 MSTORE PUSH1 0x20 PUSH1 0x0 KECCAK256 ADD PUSH1 0x40 MLOAD PUSH2 0x10BF SWAP3 SWAP2 SWAP1 PUSH2 0x2024 JUMP JUMPDEST PUSH1 0x40 MLOAD DUP1 SWAP2 SUB SWAP1 LOG2 POP POP POP POP PUSH2 0x10D3 PUSH2 0x1786 JUMP JUMPDEST POP POP JUMP JUMPDEST PUSH1 0x1 DUP1 SLOAD SWAP1 PUSH2 0x100 EXP SWAP1 DIV PUSH20 0xFFFFFFFFFFFFFFFFFFFFFFFFFFFFFFFFFFFFFFFF AND DUP2 JUMP JUMPDEST PUSH1 0x0 PUSH2 0x1105 PUSH2 0x16FF JUMP JUMPDEST PUSH1 0x0 DUP5 DUP5 SWAP1 POP GT PUSH2 0x114B JUMPI PUSH1 0x40 MLOAD PUSH32 0x8C379A000000000000000000000000000000000000000000000000000000000 DUP2 MSTORE PUSH1 0x4 ADD PUSH2 0x1142 SWAP1 PUSH2 0x20C6 JUMP JUMPDEST PUSH1 0x40 MLOAD DUP1 SWAP2 SUB SWAP1 REVERT JUMPDEST PUSH1 0x0 DUP3 GT DUP1 ISZERO PUSH2 0x115E JUMPI POP PUSH3 0x93A80 DUP3 GT ISZERO JUMPDEST PUSH2 0x119D JUMPI PUSH1 0x40 MLOAD PUSH32 0x8C379A000000000000000000000000000000000000000000000000000000000 DUP2 MSTORE PUSH1 0x4 ADD PUSH2 0x1194 SWAP1 PUSH2 0x2132 JUMP JUMPDEST PUSH1 0x40 MLOAD DUP1 SWAP2 SUB SWAP1 REVERT JUMPDEST PUSH1 0x2 PUSH1 0x0 DUP2 SLOAD PUSH2 0x11AC SWAP1 PUSH2 0x2152 JUMP JUMPDEST SWAP2 SWAP1 POP DUP2 SWAP1 SSTORE POP PUSH1 0x0 PUSH1 0x3 PUSH1 0x0 PUSH1 0x2 SLOAD DUP2 MSTORE PUSH1 0x20 ADD SWAP1 DUP2 MSTORE PUSH1 0x20 ADD PUSH1 0x0 KECCAK256 SWAP1 POP CALLER DUP2 PUSH1 0x0 ADD PUSH1 0x0 PUSH2 0x100 EXP DUP2 SLOAD DUP2 PUSH20 0xFFFFFFFFFFFFFFFFFFFFFFFFFFFFFFFFFFFFFFFF MUL NOT AND SWAP1 DUP4 PUSH20 0xFFFFFFFFFFFFFFFFFFFFFFFFFFFFFFFFFFFFFFFF AND MUL OR SWAP1 SSTORE POP DUP7 DUP7 DUP3 PUSH1 0x1 ADD SWAP2 DUP3 PUSH2 0x1222 SWAP3 SWAP2 SWAP1 PUSH2 0x236B JUMP JUMPDEST POP PUSH1 0x0 DUP2 PUSH1 0x0 ADD PUSH1 0x14 PUSH2 0x100 EXP DUP2 SLOAD DUP2 PUSH1 0xFF MUL NOT AND SWAP1 DUP4 PUSH1 0x2 DUP2 GT ISZERO PUSH2 0x124B JUMPI PUSH2 0x124A PUSH2 0x1B95 JUMP JUMPDEST JUMPDEST MUL OR SWAP1 SSTORE POP DUP3 DUP2 PUSH1 0x4 ADD DUP2 SWAP1 SSTORE POP PUSH1 0x0 DUP2 PUSH1 0x5 ADD DUP2 SWAP1 SSTORE POP PUSH1 0x0 DUP2 PUSH1 0x6 ADD DUP2 SWAP1 SSTORE POP PUSH1 0x0 DUP2 PUSH1 0x7 ADD DUP2 SWAP1 SSTORE POP PUSH1 0x0 JUMPDEST DUP6 DUP6 SWAP1 POP DUP2 LT ISZERO PUSH2 0x12F3 JUMPI DUP2 PUSH1 0x2 ADD DUP7 DUP7 DUP4 DUP2 DUP2 LT PUSH2 0x129C JUMPI PUSH2 0x129B PUSH2 0x1EA4 JUMP JUMPDEST JUMPDEST SWAP1 POP PUSH1 0x20 MUL DUP2 ADD SWAP1 PUSH2 0x12AE SWAP2 SWAP1 PUSH2 0x244A JUMP JUMPDEST SWAP1 SWAP2 DUP1 PUSH1 0x1 DUP2 SLOAD ADD DUP1 DUP3 SSTORE DUP1 SWAP2 POP POP PUSH1 0x1 SWAP1 SUB SWAP1 PUSH1 0x0 MSTORE PUSH1 0x20 PUSH1 0x0 KECCAK256 ADD PUSH1 0x0 SWAP1 SWAP2 SWAP3 SWAP1 SWAP2 SWAP3 SWAP1 SWAP2 SWAP3 SWAP1 SWAP2 SWAP3 POP SWAP2 DUP3 PUSH2 0x12E7 SWAP3 SWAP2 SWAP1 PUSH2 0x236B JUMP JUMPDEST POP DUP1 PUSH1 0x1 ADD SWAP1 POP PUSH2 0x127A JUMP JUMPDEST POP PUSH1 0x6 PUSH1 0x0 CALLER PUSH20 0xFFFFFFFFFFFFFFFFFFFFFFFFFFFFFFFFFFFFFFFF AND PUSH20 0xFFFFFFFFFFFFFFFFFFFFFFFFFFFFFFFFFFFFFFFF AND DUP2 MSTORE PUSH1 0x20 ADD SWAP1 DUP2 MSTORE PUSH1 0x20 ADD PUSH1 0x0 KECCAK256 PUSH1 0x2 SLOAD SWAP1 DUP1 PUSH1 0x1 DUP2 SLOAD ADD DUP1 DUP3 SSTORE DUP1 SWAP2 POP POP PUSH1 0x1 SWAP1 SUB SWAP1 PUSH1 0x0 MSTORE PUSH1 0x20 PUSH1 0x0 KECCAK256 ADD PUSH1 0x0 SWAP1 SWAP2 SWAP1 SWAP2 SWAP1 SWAP2 POP SSTORE CALLER PUSH20 0xFFFFFFFFFFFFFFFFFFFFFFFFFFFFFFFFFFFFFFFF AND PUSH32 0x9158C4B8B7FFF567A0A975CA3187331E08A50D8F2A1F04E986AC1E6E86E8212C PUSH1 0x2 SLOAD PUSH1 0x40 MLOAD PUSH2 0x13A4 SWAP2 SWAP1 PUSH2 0x1E26 JUMP JUMPDEST PUSH1 0x40 MLOAD DUP1 SWAP2 SUB SWAP1 LOG2 PUSH1 0x2 SLOAD SWAP2 POP POP SWAP6 SWAP5 POP POP POP POP POP JUMP JUMPDEST DUP1 PUSH1 0x0 PUSH20 0xFFFFFFFFFFFFFFFFFFFFFFFFFFFFFFFFFFFFFFFF AND PUSH1 0x3 PUSH1 0x0 DUP4 DUP2 MSTORE PUSH1 0x20 ADD SWAP1 DUP2 MSTORE PUSH1 0x20 ADD PUSH1 0x0 KECCAK256 PUSH1 0x0 ADD PUSH1 0x0 SWAP1 SLOAD SWAP1 PUSH2 0x100 EXP SWAP1 DIV PUSH20 0xFFFFFFFFFFFFFFFFFFFFFFFFFFFFFFFFFFFFFFFF AND PUSH20 0xFFFFFFFFFFFFFFFFFFFFFFFFFFFFFFFFFFFFFFFF AND SUB PUSH2 0x1458 JUMPI PUSH1 0x40 MLOAD PUSH32 0xD956962900000000000000000000000000000000000000000000000000000000 DUP2 MSTORE PUSH1 0x4 ADD PUSH1 0x40 MLOAD DUP1 SWAP2 SUB SWAP1 REVERT JUMPDEST DUP2 PUSH1 0x3 PUSH1 0x0 DUP3 DUP2 MSTORE PUSH1 0x20 ADD SWAP1 DUP2 MSTORE PUSH1 0x20 ADD PUSH1 0x0 KECCAK256 PUSH1 0x0 ADD PUSH1 0x0 SWAP1 SLOAD SWAP1 PUSH2 0x100 EXP SWAP1 DIV PUSH20 0xFFFFFFFFFFFFFFFFFFFFFFFFFFFFFFFFFFFFFFFF AND PUSH20 0xFFFFFFFFFFFFFFFFFFFFFFFFFFFFFFFFFFFFFFFF AND CALLER PUSH20 0xFFFFFFFFFFFFFFFFFFFFFFFFFFFFFFFFFFFFFFFF AND EQ PUSH2 0x14F4 JUMPI PUSH1 0x40 MLOAD PUSH32 0x82B4290000000000000000000000000000000000000000000000000000000000 DUP2 MSTORE PUSH1 0x4 ADD PUSH1 0x40 MLOAD DUP1 SWAP2 SUB SWAP1 REVERT JUMPDEST PUSH2 0x14FC PUSH2 0x16FF JUMP JUMPDEST PUSH1 0x0 PUSH1 0x3 PUSH1 0x0 DUP6 DUP2 MSTORE PUSH1 0x20 ADD SWAP1 DUP2 MSTORE PUSH1 0x20 ADD PUSH1 0x0 KECCAK256 SWAP1 POP PUSH1 0x0 PUSH1 0x2 DUP2 GT ISZERO PUSH2 0x1527 JUMPI PUSH2 0x1526 PUSH2 0x1B95 JUMP JUMPDEST JUMPDEST DUP2 PUSH1 0x0 ADD PUSH1 0x14 SWAP1 SLOAD SWAP1 PUSH2 0x100 EXP SWAP1 DIV PUSH1 0xFF AND PUSH1 0x2 DUP2 GT ISZERO PUSH2 0x154B JUMPI PUSH2 0x154A PUSH2 0x1B95 JUMP JUMPDEST JUMPDEST EQ PUSH2 0x1582 JUMPI PUSH1 0x40 MLOAD PUSH32 0x239918D800000000000000000000000000000000000000000000000000000000 DUP2 MSTORE PUSH1 0x4 ADD PUSH1 0x40 MLOAD DUP1 SWAP2 SUB SWAP1 REVERT JUMPDEST PUSH1 0x0 DUP2 PUSH1 0x3 ADD SLOAD EQ PUSH2 0x15C0 JUMPI PUSH1 0x40 MLOAD PUSH32 0x239918D800000000000000000000000000000000000000000000000000000000 DUP2 MSTORE PUSH1 0x4 ADD PUSH1 0x40 MLOAD DUP1 SWAP2 SUB SWAP1 REVERT JUMPDEST TIMESTAMP DUP2 PUSH1 0x3 ADD DUP2 SWAP1 SSTORE POP PUSH1 0x1 DUP2 PUSH1 0x0 ADD PUSH1 0x14 PUSH2 0x100 EXP DUP2 SLOAD DUP2 PUSH1 0xFF MUL NOT AND SWAP1 DUP4 PUSH1 0x2 DUP2 GT ISZERO PUSH2 0x15F1 JUMPI PUSH2 0x15F0 PUSH2 0x1B95 JUMP JUMPDEST JUMPDEST MUL OR SWAP1 SSTORE POP PUSH32 0x51732AE67FD2997CA272DE5336BE6992BF61B902BB55CA6A2180BFDD92CE087E DUP5 PUSH1 0x40 MLOAD PUSH2 0x1625 SWAP2 SWAP1 PUSH2 0x1E26 JUMP JUMPDEST PUSH1 0x40 MLOAD DUP1 SWAP2 SUB SWAP1 LOG1 POP POP POP POP JUMP JUMPDEST PUSH3 0x93A80 DUP2 JUMP JUMPDEST PUSH2 0x1642 PUSH2 0x1790 JUMP JUMPDEST PUSH1 0x0 PUSH1 0x1 PUSH1 0x0 PUSH2 0x100 EXP DUP2 SLOAD DUP2 PUSH1 0xFF MUL NOT AND SWAP1 DUP4 ISZERO ISZERO MUL OR SWAP1 SSTORE POP PUSH32 0x5DB9EE0A495BF2E6FF9C91A7834C1BA4FDD244A5E8AA4E537BD38AEAE4B073AA PUSH2 0x1686 PUSH2 0x17D0 JUMP JUMPDEST PUSH1 0x40 MLOAD PUSH2 0x1693 SWAP2 SWAP1 PUSH2 0x1CBB JUMP JUMPDEST PUSH1 0x40 MLOAD DUP1 SWAP2 SUB SWAP1 LOG1 JUMP JUMPDEST PUSH2 0x16A5 PUSH2 0x16FF JUMP JUMPDEST PUSH1 0x1 DUP1 PUSH1 0x0 PUSH2 0x100 EXP DUP2 SLOAD DUP2 PUSH1 0xFF MUL NOT AND SWAP1 DUP4 ISZERO ISZERO MUL OR SWAP1 SSTORE POP PUSH32 0x62E78CEA01BEE320CD4E420270B5EA74000D11B0C9F74754EBDBFC544B05A258 PUSH2 0x16E8 PUSH2 0x17D0 JUMP JUMPDEST PUSH1 0x40 MLOAD PUSH2 0x16F5 SWAP2 SWAP1 PUSH2 0x1CBB JUMP JUMPDEST PUSH1 0x40 MLOAD DUP1 SWAP2 SUB SWAP1 LOG1 JUMP JUMPDEST PUSH2 0x1707 PUSH2 0x62E JUMP JUMPDEST ISZERO PUSH2 0x173E JUMPI PUSH1 0x40 MLOAD PUSH32 0xD93C066500000000000000000000000000000000000000000000000000000000 DUP2 MSTORE PUSH1 0x4 ADD PUSH1 0x40 MLOAD DUP1 SWAP2 SUB SWAP1 REVERT JUMPDEST JUMP JUMPDEST PUSH1 0x2 PUSH1 0x0 SLOAD SUB PUSH2 0x177C JUMPI PUSH1 0x40 MLOAD PUSH32 0x3EE5AEB500000000000000000000000000000000000000000000000000000000 DUP2 MSTORE PUSH1 0x4 ADD PUSH1 0x40 MLOAD DUP1 SWAP2 SUB SWAP1 REVERT JUMPDEST PUSH1 0x2 PUSH1 0x0 DUP2 SWAP1 SSTORE POP JUMP JUMPDEST PUSH1 0x1 PUSH1 0x0 DUP2 SWAP1 SSTORE POP JUMP JUMPDEST PUSH2 0x1798 PUSH2 0x62E JUMP JUMPDEST PUSH2 0x17CE JUMPI PUSH1 0x40 MLOAD PUSH32 0x8DFC202B00000000000000000000000000000000000000000000000000000000 DUP2 MSTORE PUSH1 0x4 ADD PUSH1 0x40 MLOAD DUP1 SWAP2 SUB SWAP1 REVERT JUMPDEST JUMP JUMPDEST PUSH1 0x0 CALLER SWAP1 POP SWAP1 JUMP JUMPDEST PUSH1 0x0 DUP3 DUP3 MSTORE PUSH1 0x20 DUP3 ADD SWAP1 POP SWAP3 SWAP2 POP POP JUMP JUMPDEST PUSH32 0x5468697320636F6E747261637420646F6573206E6F7420616363657074207061 PUSH1 0x0 DUP3 ADD MSTORE PUSH32 0x796D656E74730000000000000000000000000000000000000000000000000000 PUSH1 0x20 DUP3 ADD MSTORE POP JUMP JUMPDEST PUSH1 0x0 PUSH2 0x1845 PUSH1 0x26 DUP4 PUSH2 0x17D8 JUMP JUMPDEST SWAP2 POP PUSH2 0x1850 DUP3 PUSH2 0x17E9 JUMP JUMPDEST PUSH1 0x40 DUP3 ADD SWAP1 POP SWAP2 SWAP1 POP JUMP JUMPDEST PUSH1 0x0 PUSH1 0x20 DUP3 ADD SWAP1 POP DUP2 DUP2 SUB PUSH1 0x0 DUP4 ADD MSTORE PUSH2 0x1874 DUP2 PUSH2 0x1838 JUMP JUMPDEST SWAP1 POP SWAP2 SWAP1 POP JUMP JUMPDEST PUSH32 0x496E76616C69642066756E6374696F6E2063616C6C0000000000000000000000 PUSH1 0x0 DUP3 ADD MSTORE POP JUMP JUMPDEST PUSH1 0x0 PUSH2 0x18B1 PUSH1 0x15 DUP4 PUSH2 0x17D8 JUMP JUMPDEST SWAP2 POP PUSH2 0x18BC DUP3 PUSH2 0x187B JUMP JUMPDEST PUSH1 0x20 DUP3 ADD SWAP1 POP SWAP2 SWAP1 POP JUMP JUMPDEST PUSH1 0x0 PUSH1 0x20 DUP3 ADD SWAP1 POP DUP2 DUP2 SUB PUSH1 0x0 DUP4 ADD MSTORE PUSH2 0x18E0 DUP2 PUSH2 0x18A4 JUMP JUMPDEST SWAP1 POP SWAP2 SWAP1 POP JUMP JUMPDEST PUSH1 0x0 DUP1 REVERT JUMPDEST PUSH1 0x0 DUP1 REVERT JUMPDEST PUSH1 0x0 DUP2 SWAP1 POP SWAP2 SWAP1 POP JUMP JUMPDEST PUSH2 0x1904 DUP2 PUSH2 0x18F1 JUMP JUMPDEST DUP2 EQ PUSH2 0x190F JUMPI PUSH1 0x0 DUP1 REVERT JUMPDEST POP JUMP JUMPDEST PUSH1 0x0 DUP2 CALLDATALOAD SWAP1 POP PUSH2 0x1921 DUP2 PUSH2 0x18FB JUMP JUMPDEST SWAP3 SWAP2 POP POP JUMP JUMPDEST PUSH1 0x0 PUSH1 0x20 DUP3 DUP5 SUB SLT ISZERO PUSH2 0x193D JUMPI PUSH2 0x193C PUSH2 0x18E7 JUMP JUMPDEST JUMPDEST PUSH1 0x0 PUSH2 0x194B DUP5 DUP3 DUP6 ADD PUSH2 0x1912 JUMP JUMPDEST SWAP2 POP POP SWAP3 SWAP2 POP POP JUMP JUMPDEST PUSH1 0x0 DUP2 MLOAD SWAP1 POP SWAP2 SWAP1 POP JUMP JUMPDEST PUSH1 0x0 JUMPDEST DUP4 DUP2 LT ISZERO PUSH2 0x197D JUMPI DUP1 DUP3 ADD MLOAD DUP2 DUP5 ADD MSTORE PUSH1 0x20 DUP2 ADD SWAP1 POP PUSH2 0x1962 JUMP JUMPDEST PUSH1 0x0 DUP5 DUP5 ADD MSTORE POP POP POP POP JUMP JUMPDEST PUSH1 0x0 PUSH1 0x1F NOT PUSH1 0x1F DUP4 ADD AND SWAP1 POP SWAP2 SWAP1 POP JUMP JUMPDEST PUSH1 0x0 PUSH2 0x19A5 DUP3 PUSH2 0x1954 JUMP JUMPDEST PUSH2 0x19AF DUP2 DUP6 PUSH2 0x17D8 JUMP JUMPDEST SWAP4 POP PUSH2 0x19BF DUP2 DUP6 PUSH1 0x20 DUP7 ADD PUSH2 0x195F JUMP JUMPDEST PUSH2 0x19C8 DUP2 PUSH2 0x1989 JUMP JUMPDEST DUP5 ADD SWAP2 POP POP SWAP3 SWAP2 POP POP JUMP JUMPDEST PUSH2 0x19DC DUP2 PUSH2 0x18F1 JUMP JUMPDEST DUP3 MSTORE POP POP JUMP JUMPDEST PUSH1 0x0 PUSH1 0x40 DUP3 ADD SWAP1 POP DUP2 DUP2 SUB PUSH1 0x0 DUP4 ADD MSTORE PUSH2 0x19FC DUP2 DUP6 PUSH2 0x199A JUMP JUMPDEST SWAP1 POP PUSH2 0x1A0B PUSH1 0x20 DUP4 ADD DUP5 PUSH2 0x19D3 JUMP JUMPDEST SWAP4 SWAP3 POP POP POP JUMP JUMPDEST PUSH1 0x0 DUP2 ISZERO ISZERO SWAP1 POP SWAP2 SWAP1 POP JUMP JUMPDEST PUSH2 0x1A27 DUP2 PUSH2 0x1A12 JUMP JUMPDEST DUP3 MSTORE POP POP JUMP JUMPDEST PUSH1 0x0 PUSH1 0x20 DUP3 ADD SWAP1 POP PUSH2 0x1A42 PUSH1 0x0 DUP4 ADD DUP5 PUSH2 0x1A1E JUMP JUMPDEST SWAP3 SWAP2 POP POP JUMP JUMPDEST PUSH1 0x0 PUSH20 0xFFFFFFFFFFFFFFFFFFFFFFFFFFFFFFFFFFFFFFFF DUP3 AND SWAP1 POP SWAP2 SWAP1 POP JUMP JUMPDEST PUSH1 0x0 PUSH2 0x1A73 DUP3 PUSH2 0x1A48 JUMP JUMPDEST SWAP1 POP SWAP2 SWAP1 POP JUMP JUMPDEST PUSH2 0x1A83 DUP2 PUSH2 0x1A68 JUMP JUMPDEST DUP3 MSTORE POP POP JUMP JUMPDEST PUSH1 0x0 DUP2 MLOAD SWAP1 POP SWAP2 SWAP1 POP JUMP JUMPDEST PUSH1 0x0 DUP3 DUP3 MSTORE PUSH1 0x20 DUP3 ADD SWAP1 POP SWAP3 SWAP2 POP POP JUMP JUMPDEST PUSH1 0x0 DUP2 SWAP1 POP PUSH1 0x20 DUP3 ADD SWAP1 POP SWAP2 SWAP1 POP JUMP JUMPDEST PUSH1 0x0 DUP3 DUP3 MSTORE PUSH1 0x20 DUP3 ADD SWAP1 POP SWAP3 SWAP2 POP POP JUMP JUMPDEST PUSH1 0x0 PUSH2 0x1AD1 DUP3 PUSH2 0x1954 JUMP JUMPDEST PUSH2 0x1ADB DUP2 DUP6 PUSH2 0x1AB5 JUMP JUMPDEST SWAP4 POP PUSH2 0x1AEB DUP2 DUP6 PUSH1 0x20 DUP7 ADD PUSH2 0x195F JUMP JUMPDEST PUSH2 0x1AF4 DUP2 PUSH2 0x1989 JUMP JUMPDEST DUP5 ADD SWAP2 POP POP SWAP3 SWAP2 POP POP JUMP JUMPDEST PUSH1 0x0 PUSH2 0x1B0B DUP4 DUP4 PUSH2 0x1AC6 JUMP JUMPDEST SWAP1 POP SWAP3 SWAP2 POP POP JUMP JUMPDEST PUSH1 0x0 PUSH1 0x20 DUP3 ADD SWAP1 POP SWAP2 SWAP1 POP JUMP JUMPDEST PUSH1 0x0 PUSH2 0x1B2B DUP3 PUSH2 0x1A89 JUMP JUMPDEST PUSH2 0x1B35 DUP2 DUP6 PUSH2 0x1A94 JUMP JUMPDEST SWAP4 POP DUP4 PUSH1 0x20 DUP3 MUL DUP6 ADD PUSH2 0x1B47 DUP6 PUSH2 0x1AA5 JUMP JUMPDEST DUP1 PUSH1 0x0 JUMPDEST DUP6 DUP2 LT ISZERO PUSH2 0x1B83 JUMPI DUP5 DUP5 SUB DUP10 MSTORE DUP2 MLOAD PUSH2 0x1B64 DUP6 DUP3 PUSH2 0x1AFF JUMP JUMPDEST SWAP5 POP PUSH2 0x1B6F DUP4 PUSH2 0x1B13 JUMP JUMPDEST SWAP3 POP PUSH1 0x20 DUP11 ADD SWAP10 POP POP PUSH1 0x1 DUP2 ADD SWAP1 POP PUSH2 0x1B4B JUMP JUMPDEST POP DUP3 SWAP8 POP DUP8 SWAP6 POP POP POP POP POP POP SWAP3 SWAP2 POP POP JUMP JUMPDEST PUSH32 0x4E487B7100000000000000000000000000000000000000000000000000000000 PUSH1 0x0 MSTORE PUSH1 0x21 PUSH1 0x4 MSTORE PUSH1 0x24 PUSH1 0x0 REVERT JUMPDEST PUSH1 0x3 DUP2 LT PUSH2 0x1BD5 JUMPI PUSH2 0x1BD4 PUSH2 0x1B95 JUMP JUMPDEST JUMPDEST POP JUMP JUMPDEST PUSH1 0x0 DUP2 SWAP1 POP PUSH2 0x1BE6 DUP3 PUSH2 0x1BC4 JUMP JUMPDEST SWAP2 SWAP1 POP JUMP JUMPDEST PUSH1 0x0 PUSH2 0x1BF6 DUP3 PUSH2 0x1BD8 JUMP JUMPDEST SWAP1 POP SWAP2 SWAP1 POP JUMP JUMPDEST PUSH2 0x1C06 DUP2 PUSH2 0x1BEB JUMP JUMPDEST DUP3 MSTORE POP POP JUMP JUMPDEST PUSH1 0x0 PUSH1 0xC0 DUP3 ADD SWAP1 POP PUSH2 0x1C21 PUSH1 0x0 DUP4 ADD DUP10 PUSH2 0x1A7A JUMP JUMPDEST DUP2 DUP2 SUB PUSH1 0x20 DUP4 ADD MSTORE PUSH2 0x1C33 DUP2 DUP9 PUSH2 0x199A JUMP JUMPDEST SWAP1 POP DUP2 DUP2 SUB PUSH1 0x40 DUP4 ADD MSTORE PUSH2 0x1C47 DUP2 DUP8 PUSH2 0x1B20 JUMP JUMPDEST SWAP1 POP PUSH2 0x1C56 PUSH1 0x60 DUP4 ADD DUP7 PUSH2 0x19D3 JUMP JUMPDEST PUSH2 0x1C63 PUSH1 0x80 DUP4 ADD DUP6 PUSH2 0x19D3 JUMP JUMPDEST PUSH2 0x1C70 PUSH1 0xA0 DUP4 ADD DUP5 PUSH2 0x1BFD JUMP JUMPDEST SWAP8 SWAP7 POP POP POP POP POP POP POP JUMP JUMPDEST PUSH1 0x0 DUP1 PUSH1 0x40 DUP4 DUP6 SUB SLT ISZERO PUSH2 0x1C92 JUMPI PUSH2 0x1C91 PUSH2 0x18E7 JUMP JUMPDEST JUMPDEST PUSH1 0x0 PUSH2 0x1CA0 DUP6 DUP3 DUP7 ADD PUSH2 0x1912 JUMP JUMPDEST SWAP3 POP POP PUSH1 0x20 PUSH2 0x1CB1 DUP6 DUP3 DUP7 ADD PUSH2 0x1912 JUMP JUMPDEST SWAP2 POP POP SWAP3 POP SWAP3 SWAP1 POP JUMP JUMPDEST PUSH1 0x0 PUSH1 0x20 DUP3 ADD SWAP1 POP PUSH2 0x1CD0 PUSH1 0x0 DUP4 ADD DUP5 PUSH2 0x1A7A JUMP JUMPDEST SWAP3 SWAP2 POP POP JUMP JUMPDEST PUSH1 0x0 DUP1 REVERT JUMPDEST PUSH1 0x0 DUP1 REVERT JUMPDEST PUSH1 0x0 DUP1 REVERT JUMPDEST PUSH1 0x0 DUP1 DUP4 PUSH1 0x1F DUP5 ADD SLT PUSH2 0x1CFB JUMPI PUSH2 0x1CFA PUSH2 0x1CD6 JUMP JUMPDEST JUMPDEST DUP3 CALLDATALOAD SWAP1 POP PUSH8 0xFFFFFFFFFFFFFFFF DUP2 GT ISZERO PUSH2 0x1D18 JUMPI PUSH2 0x1D17 PUSH2 0x1CDB JUMP JUMPDEST JUMPDEST PUSH1 0x20 DUP4 ADD SWAP2 POP DUP4 PUSH1 0x1 DUP3 MUL DUP4 ADD GT ISZERO PUSH2 0x1D34 JUMPI PUSH2 0x1D33 PUSH2 0x1CE0 JUMP JUMPDEST JUMPDEST SWAP3 POP SWAP3 SWAP1 POP JUMP JUMPDEST PUSH1 0x0 DUP1 DUP4 PUSH1 0x1F DUP5 ADD SLT PUSH2 0x1D51 JUMPI PUSH2 0x1D50 PUSH2 0x1CD6 JUMP JUMPDEST JUMPDEST DUP3 CALLDATALOAD SWAP1 POP PUSH8 0xFFFFFFFFFFFFFFFF DUP2 GT ISZERO PUSH2 0x1D6E JUMPI PUSH2 0x1D6D PUSH2 0x1CDB JUMP JUMPDEST JUMPDEST PUSH1 0x20 DUP4 ADD SWAP2 POP DUP4 PUSH1 0x20 DUP3 MUL DUP4 ADD GT ISZERO PUSH2 0x1D8A JUMPI PUSH2 0x1D89 PUSH2 0x1CE0 JUMP JUMPDEST JUMPDEST SWAP3 POP SWAP3 SWAP1 POP JUMP JUMPDEST PUSH1 0x0 DUP1 PUSH1 0x0 DUP1 PUSH1 0x0 PUSH1 0x60 DUP7 DUP9 SUB SLT ISZERO PUSH2 0x1DAD JUMPI PUSH2 0x1DAC PUSH2 0x18E7 JUMP JUMPDEST JUMPDEST PUSH1 0x0 DUP7 ADD CALLDATALOAD PUSH8 0xFFFFFFFFFFFFFFFF DUP2 GT ISZERO PUSH2 0x1DCB JUMPI PUSH2 0x1DCA PUSH2 0x18EC JUMP JUMPDEST JUMPDEST PUSH2 0x1DD7 DUP9 DUP3 DUP10 ADD PUSH2 0x1CE5 JUMP JUMPDEST SWAP6 POP SWAP6 POP POP PUSH1 0x20 DUP7 ADD CALLDATALOAD PUSH8 0xFFFFFFFFFFFFFFFF DUP2 GT ISZERO PUSH2 0x1DFA JUMPI PUSH2 0x1DF9 PUSH2 0x18EC JUMP JUMPDEST JUMPDEST PUSH2 0x1E06 DUP9 DUP3 DUP10 ADD PUSH2 0x1D3B JUMP JUMPDEST SWAP4 POP SWAP4 POP POP PUSH1 0x40 PUSH2 0x1E19 DUP9 DUP3 DUP10 ADD PUSH2 0x1912 JUMP JUMPDEST SWAP2 POP POP SWAP3 SWAP6 POP SWAP3 SWAP6 SWAP1 SWAP4 POP JUMP JUMPDEST PUSH1 0x0 PUSH1 0x20 DUP3 ADD SWAP1 POP PUSH2 0x1E3B PUSH1 0x0 DUP4 ADD DUP5 PUSH2 0x19D3 JUMP JUMPDEST SWAP3 SWAP2 POP POP JUMP JUMPDEST PUSH32 0x4E487B7100000000000000000000000000000000000000000000000000000000 PUSH1 0x0 MSTORE PUSH1 0x11 PUSH1 0x4 MSTORE PUSH1 0x24 PUSH1 0x0 REVERT JUMPDEST PUSH1 0x0 PUSH2 0x1E7B DUP3 PUSH2 0x18F1 JUMP JUMPDEST SWAP2 POP PUSH2 0x1E86 DUP4 PUSH2 0x18F1 JUMP JUMPDEST SWAP3 POP DUP3 DUP3 ADD SWAP1 POP DUP1 DUP3 GT ISZERO PUSH2 0x1E9E JUMPI PUSH2 0x1E9D PUSH2 0x1E41 JUMP JUMPDEST JUMPDEST SWAP3 SWAP2 POP POP JUMP JUMPDEST PUSH32 0x4E487B7100000000000000000000000000000000000000000000000000000000 PUSH1 0x0 MSTORE PUSH1 0x32 PUSH1 0x4 MSTORE PUSH1 0x24 PUSH1 0x0 REVERT JUMPDEST PUSH32 0x4E487B7100000000000000000000000000000000000000000000000000000000 PUSH1 0x0 MSTORE PUSH1 0x22 PUSH1 0x4 MSTORE PUSH1 0x24 PUSH1 0x0 REVERT JUMPDEST PUSH1 0x0 PUSH1 0x2 DUP3 DIV SWAP1 POP PUSH1 0x1 DUP3 AND DUP1 PUSH2 0x1F1A JUMPI PUSH1 0x7F DUP3 AND SWAP2 POP JUMPDEST PUSH1 0x20 DUP3 LT DUP2 SUB PUSH2 0x1F2D JUMPI PUSH2 0x1F2C PUSH2 0x1ED3 JUMP JUMPDEST JUMPDEST POP SWAP2 SWAP1 POP JUMP JUMPDEST PUSH1 0x0 PUSH1 0x40 DUP3 ADD SWAP1 POP PUSH2 0x1F48 PUSH1 0x0 DUP4 ADD DUP6 PUSH2 0x19D3 JUMP JUMPDEST PUSH2 0x1F55 PUSH1 0x20 DUP4 ADD DUP5 PUSH2 0x19D3 JUMP JUMPDEST SWAP4 SWAP3 POP POP POP JUMP JUMPDEST PUSH32 0x4E487B7100000000000000000000000000000000000000000000000000000000 PUSH1 0x0 MSTORE PUSH1 0x1 PUSH1 0x4 MSTORE PUSH1 0x24 PUSH1 0x0 REVERT JUMPDEST PUSH1 0x0 DUP2 SWAP1 POP DUP2 PUSH1 0x0 MSTORE PUSH1 0x20 PUSH1 0x0 KECCAK256 SWAP1 POP SWAP2 SWAP1 POP JUMP JUMPDEST PUSH1 0x0 DUP2 SLOAD PUSH2 0x1FAD DUP2 PUSH2 0x1F02 JUMP JUMPDEST PUSH2 0x1FB7 DUP2 DUP7 PUSH2 0x17D8 JUMP JUMPDEST SWAP5 POP PUSH1 0x1 DUP3 AND PUSH1 0x0 DUP2 EQ PUSH2 0x1FD2 JUMPI PUSH1 0x1 DUP2 EQ PUSH2 0x1FE8 JUMPI PUSH2 0x201B JUMP JUMPDEST PUSH1 0xFF NOT DUP4 AND DUP7 MSTORE DUP2 ISZERO ISZERO PUSH1 0x20 MUL DUP7 ADD SWAP4 POP PUSH2 0x201B JUMP JUMPDEST PUSH2 0x1FF1 DUP6 PUSH2 0x1F8B JUMP JUMPDEST PUSH1 0x0 JUMPDEST DUP4 DUP2 LT ISZERO PUSH2 0x2013 JUMPI DUP2 SLOAD DUP2 DUP10 ADD MSTORE PUSH1 0x1 DUP3 ADD SWAP2 POP PUSH1 0x20 DUP2 ADD SWAP1 POP PUSH2 0x1FF4 JUMP JUMPDEST DUP1 DUP9 ADD SWAP6 POP POP POP JUMPDEST POP POP POP SWAP3 SWAP2 POP POP JUMP JUMPDEST PUSH1 0x0 PUSH1 0x40 DUP3 ADD SWAP1 POP PUSH2 0x2039 PUSH1 0x0 DUP4 ADD DUP6 PUSH2 0x19D3 JUMP JUMPDEST DUP2 DUP2 SUB PUSH1 0x20 DUP4 ADD MSTORE PUSH2 0x204B DUP2 DUP5 PUSH2 0x1FA0 JUMP JUMPDEST SWAP1 POP SWAP4 SWAP3 POP POP POP JUMP JUMPDEST PUSH32 0x4174206C656173742074776F206D6F7669657320617265207265717569726564 PUSH1 0x0 DUP3 ADD MSTORE PUSH32 0x20666F722061207375727665792E000000000000000000000000000000000000 PUSH1 0x20 DUP3 ADD MSTORE POP JUMP JUMPDEST PUSH1 0x0 PUSH2 0x20B0 PUSH1 0x2E DUP4 PUSH2 0x17D8 JUMP JUMPDEST SWAP2 POP PUSH2 0x20BB DUP3 PUSH2 0x2054 JUMP JUMPDEST PUSH1 0x40 DUP3 ADD SWAP1 POP SWAP2 SWAP1 POP JUMP JUMPDEST PUSH1 0x0 PUSH1 0x20 DUP3 ADD SWAP1 POP DUP2 DUP2 SUB PUSH1 0x0 DUP4 ADD MSTORE PUSH2 0x20DF DUP2 PUSH2 0x20A3 JUMP JUMPDEST SWAP1 POP SWAP2 SWAP1 POP JUMP JUMPDEST PUSH32 0x496E76616C696420737572766579206475726174696F6E2E0000000000000000 PUSH1 0x0 DUP3 ADD MSTORE POP JUMP JUMPDEST PUSH1 0x0 PUSH2 0x211C PUSH1 0x18 DUP4 PUSH2 0x17D8 JUMP JUMPDEST SWAP2 POP PUSH2 0x2127 DUP3 PUSH2 0x20E6 JUMP JUMPDEST PUSH1 0x20 DUP3 ADD SWAP1 POP SWAP2 SWAP1 POP JUMP JUMPDEST PUSH1 0x0 PUSH1 0x20 DUP3 ADD SWAP1 POP DUP2 DUP2 SUB PUSH1 0x0 DUP4 ADD MSTORE PUSH2 0x214B DUP2 PUSH2 0x210F JUMP JUMPDEST SWAP1 POP SWAP2 SWAP1 POP JUMP JUMPDEST PUSH1 0x0 PUSH2 0x215D DUP3 PUSH2 0x18F1 JUMP JUMPDEST SWAP2 POP PUSH32 0xFFFFFFFFFFFFFFFFFFFFFFFFFFFFFFFFFFFFFFFFFFFFFFFFFFFFFFFFFFFFFFFF DUP3 SUB PUSH2 0x218F JUMPI PUSH2 0x218E PUSH2 0x1E41 JUMP JUMPDEST JUMPDEST PUSH1 0x1 DUP3 ADD SWAP1 POP SWAP2 SWAP1 POP JUMP JUMPDEST PUSH1 0x0 DUP3 SWAP1 POP SWAP3 SWAP2 POP POP JUMP JUMPDEST PUSH32 0x4E487B7100000000000000000000000000000000000000000000000000000000 PUSH1 0x0 MSTORE PUSH1 0x41 PUSH1 0x4 MSTORE PUSH1 0x24 PUSH1 0x0 REVERT JUMPDEST PUSH1 0x0 PUSH1 0x20 PUSH1 0x1F DUP4 ADD DIV SWAP1 POP SWAP2 SWAP1 POP JUMP JUMPDEST PUSH1 0x0 DUP3 DUP3 SHL SWAP1 POP SWAP3 SWAP2 POP POP JUMP JUMPDEST PUSH1 0x0 PUSH1 0x8 DUP4 MUL PUSH2 0x2221 PUSH32 0xFFFFFFFFFFFFFFFFFFFFFFFFFFFFFFFFFFFFFFFFFFFFFFFFFFFFFFFFFFFFFFFF DUP3 PUSH2 0x21E4 JUMP JUMPDEST PUSH2 0x222B DUP7 DUP4 PUSH2 0x21E4 JUMP JUMPDEST SWAP6 POP DUP1 NOT DUP5 AND SWAP4 POP DUP1 DUP7 AND DUP5 OR SWAP3 POP POP POP SWAP4 SWAP3 POP POP POP JUMP JUMPDEST PUSH1 0x0 DUP2 SWAP1 POP SWAP2 SWAP1 POP JUMP JUMPDEST PUSH1 0x0 PUSH2 0x2268 PUSH2 0x2263 PUSH2 0x225E DUP5 PUSH2 0x18F1 JUMP JUMPDEST PUSH2 0x2243 JUMP JUMPDEST PUSH2 0x18F1 JUMP JUMPDEST SWAP1 POP SWAP2 SWAP1 POP JUMP JUMPDEST PUSH1 0x0 DUP2 SWAP1 POP SWAP2 SWAP1 POP JUMP JUMPDEST PUSH2 0x2282 DUP4 PUSH2 0x224D JUMP JUMPDEST PUSH2 0x2296 PUSH2 0x228E DUP3 PUSH2 0x226F JUMP JUMPDEST DUP5 DUP5 SLOAD PUSH2 0x21F1 JUMP JUMPDEST DUP3 SSTORE POP POP POP POP JUMP JUMPDEST PUSH1 0x0 SWAP1 JUMP JUMPDEST PUSH2 0x22AB PUSH2 0x229E JUMP JUMPDEST PUSH2 0x22B6 DUP2 DUP5 DUP5 PUSH2 0x2279 JUMP JUMPDEST POP POP POP JUMP JUMPDEST JUMPDEST DUP2 DUP2 LT ISZERO PUSH2 0x22DA JUMPI PUSH2 0x22CF PUSH1 0x0 DUP3 PUSH2 0x22A3 JUMP JUMPDEST PUSH1 0x1 DUP2 ADD SWAP1 POP PUSH2 0x22BC JUMP JUMPDEST POP POP JUMP JUMPDEST PUSH1 0x1F DUP3 GT ISZERO PUSH2 0x231F JUMPI PUSH2 0x22F0 DUP2 PUSH2 0x1F8B JUMP JUMPDEST PUSH2 0x22F9 DUP5 PUSH2 0x21D4 JUMP JUMPDEST DUP2 ADD PUSH1 0x20 DUP6 LT ISZERO PUSH2 0x2308 JUMPI DUP2 SWAP1 POP JUMPDEST PUSH2 0x231C PUSH2 0x2314 DUP6 PUSH2 0x21D4 JUMP JUMPDEST DUP4 ADD DUP3 PUSH2 0x22BB JUMP JUMPDEST POP POP JUMPDEST POP POP POP JUMP JUMPDEST PUSH1 0x0 DUP3 DUP3 SHR SWAP1 POP SWAP3 SWAP2 POP POP JUMP JUMPDEST PUSH1 0x0 PUSH2 0x2342 PUSH1 0x0 NOT DUP5 PUSH1 0x8 MUL PUSH2 0x2324 JUMP JUMPDEST NOT DUP1 DUP4 AND SWAP2 POP POP SWAP3 SWAP2 POP POP JUMP JUMPDEST PUSH1 0x0 PUSH2 0x235B DUP4 DUP4 PUSH2 0x2331 JUMP JUMPDEST SWAP2 POP DUP3 PUSH1 0x2 MUL DUP3 OR SWAP1 POP SWAP3 SWAP2 POP POP JUMP JUMPDEST PUSH2 0x2375 DUP4 DUP4 PUSH2 0x219A JUMP JUMPDEST PUSH8 0xFFFFFFFFFFFFFFFF DUP2 GT ISZERO PUSH2 0x238E JUMPI PUSH2 0x238D PUSH2 0x21A5 JUMP JUMPDEST JUMPDEST PUSH2 0x2398 DUP3 SLOAD PUSH2 0x1F02 JUMP JUMPDEST PUSH2 0x23A3 DUP3 DUP3 DUP6 PUSH2 0x22DE JUMP JUMPDEST PUSH1 0x0 PUSH1 0x1F DUP4 GT PUSH1 0x1 DUP2 EQ PUSH2 0x23D2 JUMPI PUSH1 0x0 DUP5 ISZERO PUSH2 0x23C0 JUMPI DUP3 DUP8 ADD CALLDATALOAD SWAP1 POP JUMPDEST PUSH2 0x23CA DUP6 DUP3 PUSH2 0x234F JUMP JUMPDEST DUP7 SSTORE POP PUSH2 0x2432 JUMP JUMPDEST PUSH1 0x1F NOT DUP5 AND PUSH2 0x23E0 DUP7 PUSH2 0x1F8B JUMP JUMPDEST PUSH1 0x0 JUMPDEST DUP3 DUP2 LT ISZERO PUSH2 0x2408 JUMPI DUP5 DUP10 ADD CALLDATALOAD DUP3 SSTORE PUSH1 0x1 DUP3 ADD SWAP2 POP PUSH1 0x20 DUP6 ADD SWAP5 POP PUSH1 0x20 DUP2 ADD SWAP1 POP PUSH2 0x23E3 JUMP JUMPDEST DUP7 DUP4 LT ISZERO PUSH2 0x2425 JUMPI DUP5 DUP10 ADD CALLDATALOAD PUSH2 0x2421 PUSH1 0x1F DUP10 AND DUP3 PUSH2 0x2331 JUMP JUMPDEST DUP4 SSTORE POP JUMPDEST PUSH1 0x1 PUSH1 0x2 DUP9 MUL ADD DUP9 SSTORE POP POP POP JUMPDEST POP POP POP POP POP POP POP JUMP JUMPDEST PUSH1 0x0 DUP1 REVERT JUMPDEST PUSH1 0x0 DUP1 REVERT JUMPDEST PUSH1 0x0 DUP1 REVERT JUMPDEST PUSH1 0x0 DUP1 DUP4 CALLDATALOAD PUSH1 0x1 PUSH1 0x20 SUB DUP5 CALLDATASIZE SUB SUB DUP2 SLT PUSH2 0x2467 JUMPI PUSH2 0x2466 PUSH2 0x243B JUMP JUMPDEST JUMPDEST DUP1 DUP5 ADD SWAP3 POP DUP3 CALLDATALOAD SWAP2 POP PUSH8 0xFFFFFFFFFFFFFFFF DUP3 GT ISZERO PUSH2 0x2489 JUMPI PUSH2 0x2488 PUSH2 0x2440 JUMP JUMPDEST JUMPDEST PUSH1 0x20 DUP4 ADD SWAP3 POP PUSH1 0x1 DUP3 MUL CALLDATASIZE SUB DUP4 SGT ISZERO PUSH2 0x24A5 JUMPI PUSH2 0x24A4 PUSH2 0x2445 JUMP JUMPDEST JUMPDEST POP SWAP3 POP SWAP3 SWAP1 POP JUMP INVALID LOG2 PUSH5 0x6970667358 0x22 SLT KECCAK256 SWAP3 SELFDESTRUCT 0xB6 0xE8 DUP13 ADD PUSH1 0xB2 0xFC 0xE0 REVERT CALL SELFBALANCE 0xBF 0xE6 PUSH16 0x2D07EE434AE9815CBE2F7485ECF0C7E PUSH5 0x736F6C6343 STOP ADDMOD BYTE STOP CALLER "
        },
        "methodIdentifiers": {
          "MAX_SURVEY_DURATION()": "fdf7258a",
          "contractOwner()": "ce606ee0",
          "createSurvey(string,string[],uint256)": "dc70cefc",
          "endSurvey(uint256)": "a6c67233",
          "getCurrentLeadingMovie(uint256)": "5154df17",
          "getSurvey(uint256)": "89670e15",
          "pause()": "8456cb59",
          "paused()": "5c975abb",
          "startSurvey(uint256)": "f6de78f5",
          "unpause()": "3f4ba83a",
          "vote(uint256,uint256)": "b384abef"
        }
      }
    }
  }
}