{
  "_format": "hh-sol-artifact-1",
  "contractName": "MovieSurveyCreator",
  "sourceName": "contracts/MovieSurveyCreator.sol",
  "abi": [
    {
      "inputs": [],
      "stateMutability": "nonpayable",
      "type": "constructor"
    },
    {
      "inputs": [],
      "name": "AlreadyVoted",
      "type": "error"
    },
    {
      "inputs": [],
      "name": "EnforcedPause",
      "type": "error"
    },
    {
      "inputs": [],
      "name": "ExpectedPause",
      "type": "error"
    },
    {
      "inputs": [],
      "name": "InvalidMovieId",
      "type": "error"
    },
    {
      "inputs": [],
      "name": "ReentrancyGuardReentrantCall",
      "type": "error"
    },
    {
      "inputs": [],
      "name": "SurveyAlreadyStarted",
      "type": "error"
    },
    {
      "inputs": [],
      "name": "SurveyCreatorCannotVote",
      "type": "error"
    },
    {
      "inputs": [],
      "name": "SurveyDoesNotExist",
      "type": "error"
    },
    {
      "inputs": [],
      "name": "SurveyHasEnded",
      "type": "error"
    },
    {
      "inputs": [],
      "name": "SurveyNotStarted",
      "type": "error"
    },
    {
      "inputs": [],
      "name": "Unauthorized",
      "type": "error"
    },
    {
      "anonymous": false,
      "inputs": [
        {
          "indexed": true,
          "internalType": "address",
          "name": "by",
          "type": "address"
        }
      ],
      "name": "ContractPaused",
      "type": "event"
    },
    {
      "anonymous": false,
      "inputs": [
        {
          "indexed": true,
          "internalType": "address",
          "name": "by",
          "type": "address"
        }
      ],
      "name": "ContractUnpaused",
      "type": "event"
    },
    {
      "anonymous": false,
      "inputs": [
        {
          "indexed": false,
          "internalType": "address",
          "name": "account",
          "type": "address"
        }
      ],
      "name": "Paused",
      "type": "event"
    },
    {
      "anonymous": false,
      "inputs": [
        {
          "indexed": false,
          "internalType": "uint256",
          "name": "surveyId",
          "type": "uint256"
        },
        {
          "indexed": true,
          "internalType": "address",
          "name": "surveyCreator",
          "type": "address"
        }
      ],
      "name": "SurveyCreated",
      "type": "event"
    },
    {
      "anonymous": false,
      "inputs": [
        {
          "indexed": true,
          "internalType": "uint256",
          "name": "surveyId",
          "type": "uint256"
        },
        {
          "indexed": false,
          "internalType": "uint256",
          "name": "winningMovieId",
          "type": "uint256"
        },
        {
          "indexed": false,
          "internalType": "uint256",
          "name": "winningMovieVotes",
          "type": "uint256"
        }
      ],
      "name": "SurveyEnded",
      "type": "event"
    },
    {
      "anonymous": false,
      "inputs": [
        {
          "indexed": false,
          "internalType": "uint256",
          "name": "surveyId",
          "type": "uint256"
        }
      ],
      "name": "SurveyStarted",
      "type": "event"
    },
    {
      "anonymous": false,
      "inputs": [
        {
          "indexed": false,
          "internalType": "address",
          "name": "account",
          "type": "address"
        }
      ],
      "name": "Unpaused",
      "type": "event"
    },
    {
      "anonymous": false,
      "inputs": [
        {
          "indexed": false,
          "internalType": "uint256",
          "name": "surveyId",
          "type": "uint256"
        },
        {
          "indexed": false,
          "internalType": "string",
          "name": "movie",
          "type": "string"
        },
        {
          "indexed": true,
          "internalType": "address",
          "name": "voter",
          "type": "address"
        }
      ],
      "name": "Voted",
      "type": "event"
    },
    {
      "stateMutability": "nonpayable",
      "type": "fallback"
    },
    {
      "inputs": [],
      "name": "MAX_SURVEY_DURATION",
      "outputs": [
        {
          "internalType": "uint256",
          "name": "",
          "type": "uint256"
        }
      ],
      "stateMutability": "view",
      "type": "function"
    },
    {
      "inputs": [],
      "name": "contractOwner",
      "outputs": [
        {
          "internalType": "address",
          "name": "",
          "type": "address"
        }
      ],
      "stateMutability": "view",
      "type": "function"
    },
    {
      "inputs": [
        {
          "internalType": "string",
          "name": "_genre",
          "type": "string"
        },
        {
          "internalType": "string[]",
          "name": "_movies",
          "type": "string[]"
        },
        {
          "internalType": "uint256",
          "name": "_duration",
          "type": "uint256"
        }
      ],
      "name": "createSurvey",
      "outputs": [
        {
          "internalType": "uint256",
          "name": "",
          "type": "uint256"
        }
      ],
      "stateMutability": "nonpayable",
      "type": "function"
    },
    {
      "inputs": [
        {
          "internalType": "uint256",
          "name": "_surveyId",
          "type": "uint256"
        }
      ],
      "name": "endSurvey",
      "outputs": [],
      "stateMutability": "nonpayable",
      "type": "function"
    },
    {
      "inputs": [
        {
          "internalType": "uint256",
          "name": "_surveyId",
          "type": "uint256"
        }
      ],
      "name": "getCurrentLeadingMovie",
      "outputs": [
        {
          "internalType": "string",
          "name": "",
          "type": "string"
        },
        {
          "internalType": "uint256",
          "name": "",
          "type": "uint256"
        }
      ],
      "stateMutability": "view",
      "type": "function"
    },
    {
      "inputs": [
        {
          "internalType": "uint256",
          "name": "_surveyId",
          "type": "uint256"
        }
      ],
      "name": "getSurvey",
      "outputs": [
        {
          "internalType": "address",
          "name": "_surveyCreator",
          "type": "address"
        },
        {
          "internalType": "string",
          "name": "_genre",
          "type": "string"
        },
        {
          "internalType": "string[]",
          "name": "_movies",
          "type": "string[]"
        },
        {
          "internalType": "uint256",
          "name": "_startTime",
          "type": "uint256"
        },
        {
          "internalType": "uint256",
          "name": "_duration",
          "type": "uint256"
        },
        {
          "internalType": "enum MovieSurveyCreator.SurveyStatus",
          "name": "_status",
          "type": "uint8"
        }
      ],
      "stateMutability": "view",
      "type": "function"
    },
    {
      "inputs": [],
      "name": "pause",
      "outputs": [],
      "stateMutability": "nonpayable",
      "type": "function"
    },
    {
      "inputs": [],
      "name": "paused",
      "outputs": [
        {
          "internalType": "bool",
          "name": "",
          "type": "bool"
        }
      ],
      "stateMutability": "view",
      "type": "function"
    },
    {
      "inputs": [
        {
          "internalType": "uint256",
          "name": "_surveyId",
          "type": "uint256"
        }
      ],
      "name": "startSurvey",
      "outputs": [],
      "stateMutability": "nonpayable",
      "type": "function"
    },
    {
      "inputs": [],
      "name": "unpause",
      "outputs": [],
      "stateMutability": "nonpayable",
      "type": "function"
    },
    {
      "inputs": [
        {
          "internalType": "uint256",
          "name": "_surveyId",
          "type": "uint256"
        },
        {
          "internalType": "uint256",
          "name": "_movieId",
          "type": "uint256"
        }
      ],
      "name": "vote",
      "outputs": [],
      "stateMutability": "nonpayable",
      "type": "function"
    },
    {
      "stateMutability": "payable",
      "type": "receive"
    }
  ],
  "bytecode": "0x6080604052348015600f57600080fd5b5060016000819055506000600160006101000a81548160ff021916908315150217905550336001806101000a81548173ffffffffffffffffffffffffffffffffffffffff021916908373ffffffffffffffffffffffffffffffffffffffff1602179055506124e3806100826000396000f3fe6080604052600436106100a05760003560e01c8063a6c6723311610064578063a6c6723314610201578063b384abef1461022a578063ce606ee014610253578063dc70cefc1461027e578063f6de78f5146102bb578063fdf7258a146102e4576100e0565b80633f4ba83a146101285780635154df171461013f5780635c975abb1461017d5780638456cb59146101a857806389670e15146101bf576100e0565b366100e0576040517f08c379a00000000000000000000000000000000000000000000000000000000081526004016100d79061185b565b60405180910390fd5b3480156100ec57600080fd5b506040517f08c379a000000000000000000000000000000000000000000000000000000000815260040161011f906118c7565b60405180910390fd5b34801561013457600080fd5b5061013d61030f565b005b34801561014b57600080fd5b5061016660048036038101906101619190611927565b6103e1565b6040516101749291906119e2565b60405180910390f35b34801561018957600080fd5b5061019261062e565b60405161019f9190611a2d565b60405180910390f35b3480156101b457600080fd5b506101bd610645565b005b3480156101cb57600080fd5b506101e660048036038101906101e19190611927565b610717565b6040516101f896959493929190611c0c565b60405180910390f35b34801561020d57600080fd5b5061022860048036038101906102239190611927565b610994565b005b34801561023657600080fd5b50610251600480360381019061024c9190611c7b565b610bd0565b005b34801561025f57600080fd5b506102686110d7565b6040516102759190611cbb565b60405180910390f35b34801561028a57600080fd5b506102a560048036038101906102a09190611d91565b6110fb565b6040516102b29190611e26565b60405180910390f35b3480156102c757600080fd5b506102e260048036038101906102dd9190611927565b6113bb565b005b3480156102f057600080fd5b506102f9611633565b6040516103069190611e26565b60405180910390f35b60018054906101000a900473ffffffffffffffffffffffffffffffffffffffff1673ffffffffffffffffffffffffffffffffffffffff163373ffffffffffffffffffffffffffffffffffffffff1614610394576040517f82b4290000000000000000000000000000000000000000000000000000000000815260040160405180910390fd5b61039c61163a565b3373ffffffffffffffffffffffffffffffffffffffff167f5b65b0c1363b3003db9bcc5e1fd8805a6d6bf5bf6dc9d3431ee4494cd7d1176660405160405180910390a2565b6060600082600073ffffffffffffffffffffffffffffffffffffffff166003600083815260200190815260200160002060000160009054906101000a900473ffffffffffffffffffffffffffffffffffffffff1673ffffffffffffffffffffffffffffffffffffffff1603610482576040517fd956962900000000000000000000000000000000000000000000000000000000815260040160405180910390fd5b836000600360008381526020019081526020016000209050600160028111156104ae576104ad611b95565b5b8160000160149054906101000a900460ff1660028111156104d2576104d1611b95565b5b14610509576040517fbe02bafd00000000000000000000000000000000000000000000000000000000815260040160405180910390fd5b428160040154826003015461051e9190611e70565b11610555576040517f90bee62d00000000000000000000000000000000000000000000000000000000815260040160405180910390fd5b60006003600088815260200190815260200160002090508060020181600601548154811061058657610585611ea4565b5b9060005260206000200181600701548180546105a190611f02565b80601f01602080910402602001604051908101604052809291908181526020018280546105cd90611f02565b801561061a5780601f106105ef5761010080835404028352916020019161061a565b820191906000526020600020905b8154815290600101906020018083116105fd57829003601f168201915b505050505091509550955050505050915091565b6000600160009054906101000a900460ff16905090565b60018054906101000a900473ffffffffffffffffffffffffffffffffffffffff1673ffffffffffffffffffffffffffffffffffffffff163373ffffffffffffffffffffffffffffffffffffffff16146106ca576040517f82b4290000000000000000000000000000000000000000000000000000000000815260040160405180910390fd5b6106d261169d565b3373ffffffffffffffffffffffffffffffffffffffff167f81990fd9a5c552b8e3677917d8a03c07678f0d2cb68f88b634aca2022e9bd19f60405160405180910390a2565b6000606080600080600086600073ffffffffffffffffffffffffffffffffffffffff166003600083815260200190815260200160002060000160009054906101000a900473ffffffffffffffffffffffffffffffffffffffff1673ffffffffffffffffffffffffffffffffffffffff16036107be576040517fd956962900000000000000000000000000000000000000000000000000000000815260040160405180910390fd5b6000600360008a815260200190815260200160002090508060000160009054906101000a900473ffffffffffffffffffffffffffffffffffffffff168160010182600201836003015484600401548560000160149054906101000a900460ff1684805461082a90611f02565b80601f016020809104026020016040519081016040528092919081815260200182805461085690611f02565b80156108a35780601f10610878576101008083540402835291602001916108a3565b820191906000526020600020905b81548152906001019060200180831161088657829003601f168201915b5050505050945083805480602002602001604051908101604052809291908181526020016000905b828210156109775783829060005260206000200180546108ea90611f02565b80601f016020809104026020016040519081016040528092919081815260200182805461091690611f02565b80156109635780601f1061093857610100808354040283529160200191610963565b820191906000526020600020905b81548152906001019060200180831161094657829003601f168201915b5050505050815260200190600101906108cb565b505050509350975097509750975097509750505091939550919395565b80600073ffffffffffffffffffffffffffffffffffffffff166003600083815260200190815260200160002060000160009054906101000a900473ffffffffffffffffffffffffffffffffffffffff1673ffffffffffffffffffffffffffffffffffffffff1603610a31576040517fd956962900000000000000000000000000000000000000000000000000000000815260040160405180910390fd5b610a396116ff565b816003600082815260200190815260200160002060000160009054906101000a900473ffffffffffffffffffffffffffffffffffffffff1673ffffffffffffffffffffffffffffffffffffffff163373ffffffffffffffffffffffffffffffffffffffff1614610ad5576040517f82b4290000000000000000000000000000000000000000000000000000000000815260040160405180910390fd5b600060036000858152602001908152602001600020905060016002811115610b0057610aff611b95565b5b8160000160149054906101000a900460ff166002811115610b2457610b23611b95565b5b14610b5b576040517fbe02bafd00000000000000000000000000000000000000000000000000000000815260040160405180910390fd5b60028160000160146101000a81548160ff02191690836002811115610b8357610b82611b95565b5b0217905550837f6c8af3395e52e06b82fb64d66eba89436b4db530d05c84329e3f1d1cc2bfe34582600601548360070154604051610bc2929190611f33565b60405180910390a250505050565b610bd8611740565b610be06116ff565b81600073ffffffffffffffffffffffffffffffffffffffff166003600083815260200190815260200160002060000160009054906101000a900473ffffffffffffffffffffffffffffffffffffffff1673ffffffffffffffffffffffffffffffffffffffff1603610c7d576040517fd956962900000000000000000000000000000000000000000000000000000000815260040160405180910390fd5b82600060036000838152602001908152602001600020905060016002811115610ca957610ca8611b95565b5b8160000160149054906101000a900460ff166002811115610ccd57610ccc611b95565b5b14610d04576040517fbe02bafd00000000000000000000000000000000000000000000000000000000815260040160405180910390fd5b4281600401548260030154610d199190611e70565b11610d50576040517f90bee62d00000000000000000000000000000000000000000000000000000000815260040160405180910390fd5b600060036000878152602001908152602001600020905080600201805490508510610da7576040517f111b8d9100000000000000000000000000000000000000000000000000000000815260040160405180910390fd5b6004600087815260200190815260200160002060003373ffffffffffffffffffffffffffffffffffffffff1673ffffffffffffffffffffffffffffffffffffffff16815260200190815260200160002060009054906101000a900460ff1615610e3c576040517f7c9a1cf900000000000000000000000000000000000000000000000000000000815260040160405180910390fd5b8060000160009054906101000a900473ffffffffffffffffffffffffffffffffffffffff1673ffffffffffffffffffffffffffffffffffffffff163373ffffffffffffffffffffffffffffffffffffffff1603610ec5576040517f862db8b000000000000000000000000000000000000000000000000000000000815260040160405180910390fd5b60016004600088815260200190815260200160002060003373ffffffffffffffffffffffffffffffffffffffff1673ffffffffffffffffffffffffffffffffffffffff16815260200190815260200160002060006101000a81548160ff02191690831515021790555060016005600088815260200190815260200160002060008781526020019081526020016000206000828254610f639190611e70565b925050819055506001816005016000828254610f7f9190611e70565b925050819055508060070154600560008881526020019081526020016000206000878152602001908152602001600020541115610fed578481600601819055506005600087815260200190815260200160002060008681526020019081526020016000205481600701819055505b6004600087815260200190815260200160002060003373ffffffffffffffffffffffffffffffffffffffff1673ffffffffffffffffffffffffffffffffffffffff16815260200190815260200160002060009054906101000a900460ff1661105857611057611f5c565b5b3373ffffffffffffffffffffffffffffffffffffffff167f01674dedffd7377ed829cf5235cf829c93de67870b6eabca5cc4ccc21d9a54e7878360020188815481106110a7576110a6611ea4565b5b906000526020600020016040516110bf929190612024565b60405180910390a2505050506110d3611786565b5050565b60018054906101000a900473ffffffffffffffffffffffffffffffffffffffff1681565b60006111056116ff565b6000848490501161114b576040517f08c379a0000000000000000000000000000000000000000000000000000000008152600401611142906120c6565b60405180910390fd5b60008211801561115e575062093a808211155b61119d576040517f08c379a000000000000000000000000000000000000000000000000000000000815260040161119490612132565b60405180910390fd5b6002600081546111ac90612152565b9190508190555060006003600060025481526020019081526020016000209050338160000160006101000a81548173ffffffffffffffffffffffffffffffffffffffff021916908373ffffffffffffffffffffffffffffffffffffffff160217905550868682600101918261122292919061236b565b5060008160000160146101000a81548160ff0219169083600281111561124b5761124a611b95565b5b021790555082816004018190555060008160050181905550600081600601819055506000816007018190555060005b858590508110156112f3578160020186868381811061129c5761129b611ea4565b5b90506020028101906112ae919061244a565b909180600181540180825580915050600190039060005260206000200160009091929091929091929091925091826112e792919061236b565b5080600101905061127a565b50600660003373ffffffffffffffffffffffffffffffffffffffff1673ffffffffffffffffffffffffffffffffffffffff16815260200190815260200160002060025490806001815401808255809150506001900390600052602060002001600090919091909150553373ffffffffffffffffffffffffffffffffffffffff167f9158c4b8b7fff567a0a975ca3187331e08a50d8f2a1f04e986ac1e6e86e8212c6002546040516113a49190611e26565b60405180910390a260025491505095945050505050565b80600073ffffffffffffffffffffffffffffffffffffffff166003600083815260200190815260200160002060000160009054906101000a900473ffffffffffffffffffffffffffffffffffffffff1673ffffffffffffffffffffffffffffffffffffffff1603611458576040517fd956962900000000000000000000000000000000000000000000000000000000815260040160405180910390fd5b816003600082815260200190815260200160002060000160009054906101000a900473ffffffffffffffffffffffffffffffffffffffff1673ffffffffffffffffffffffffffffffffffffffff163373ffffffffffffffffffffffffffffffffffffffff16146114f4576040517f82b4290000000000000000000000000000000000000000000000000000000000815260040160405180910390fd5b6114fc6116ff565b60006003600085815260200190815260200160002090506000600281111561152757611526611b95565b5b8160000160149054906101000a900460ff16600281111561154b5761154a611b95565b5b14611582576040517f239918d800000000000000000000000000000000000000000000000000000000815260040160405180910390fd5b60008160030154146115c0576040517f239918d800000000000000000000000000000000000000000000000000000000815260040160405180910390fd5b42816003018190555060018160000160146101000a81548160ff021916908360028111156115f1576115f0611b95565b5b02179055507f51732ae67fd2997ca272de5336be6992bf61b902bb55ca6a2180bfdd92ce087e846040516116259190611e26565b60405180910390a150505050565b62093a8081565b611642611790565b6000600160006101000a81548160ff0219169083151502179055507f5db9ee0a495bf2e6ff9c91a7834c1ba4fdd244a5e8aa4e537bd38aeae4b073aa6116866117d0565b6040516116939190611cbb565b60405180910390a1565b6116a56116ff565b60018060006101000a81548160ff0219169083151502179055507f62e78cea01bee320cd4e420270b5ea74000d11b0c9f74754ebdbfc544b05a2586116e86117d0565b6040516116f59190611cbb565b60405180910390a1565b61170761062e565b1561173e576040517fd93c066500000000000000000000000000000000000000000000000000000000815260040160405180910390fd5b565b60026000540361177c576040517f3ee5aeb500000000000000000000000000000000000000000000000000000000815260040160405180910390fd5b6002600081905550565b6001600081905550565b61179861062e565b6117ce576040517f8dfc202b00000000000000000000000000000000000000000000000000000000815260040160405180910390fd5b565b600033905090565b600082825260208201905092915050565b7f5468697320636f6e747261637420646f6573206e6f742061636365707420706160008201527f796d656e74730000000000000000000000000000000000000000000000000000602082015250565b60006118456026836117d8565b9150611850826117e9565b604082019050919050565b6000602082019050818103600083015261187481611838565b9050919050565b7f496e76616c69642066756e6374696f6e2063616c6c0000000000000000000000600082015250565b60006118b16015836117d8565b91506118bc8261187b565b602082019050919050565b600060208201905081810360008301526118e0816118a4565b9050919050565b600080fd5b600080fd5b6000819050919050565b611904816118f1565b811461190f57600080fd5b50565b600081359050611921816118fb565b92915050565b60006020828403121561193d5761193c6118e7565b5b600061194b84828501611912565b91505092915050565b600081519050919050565b60005b8381101561197d578082015181840152602081019050611962565b60008484015250505050565b6000601f19601f8301169050919050565b60006119a582611954565b6119af81856117d8565b93506119bf81856020860161195f565b6119c881611989565b840191505092915050565b6119dc816118f1565b82525050565b600060408201905081810360008301526119fc818561199a565b9050611a0b60208301846119d3565b9392505050565b60008115159050919050565b611a2781611a12565b82525050565b6000602082019050611a426000830184611a1e565b92915050565b600073ffffffffffffffffffffffffffffffffffffffff82169050919050565b6000611a7382611a48565b9050919050565b611a8381611a68565b82525050565b600081519050919050565b600082825260208201905092915050565b6000819050602082019050919050565b600082825260208201905092915050565b6000611ad182611954565b611adb8185611ab5565b9350611aeb81856020860161195f565b611af481611989565b840191505092915050565b6000611b0b8383611ac6565b905092915050565b6000602082019050919050565b6000611b2b82611a89565b611b358185611a94565b935083602082028501611b4785611aa5565b8060005b85811015611b835784840389528151611b648582611aff565b9450611b6f83611b13565b925060208a01995050600181019050611b4b565b50829750879550505050505092915050565b7f4e487b7100000000000000000000000000000000000000000000000000000000600052602160045260246000fd5b60038110611bd557611bd4611b95565b5b50565b6000819050611be682611bc4565b919050565b6000611bf682611bd8565b9050919050565b611c0681611beb565b82525050565b600060c082019050611c216000830189611a7a565b8181036020830152611c33818861199a565b90508181036040830152611c478187611b20565b9050611c5660608301866119d3565b611c6360808301856119d3565b611c7060a0830184611bfd565b979650505050505050565b60008060408385031215611c9257611c916118e7565b5b6000611ca085828601611912565b9250506020611cb185828601611912565b9150509250929050565b6000602082019050611cd06000830184611a7a565b92915050565b600080fd5b600080fd5b600080fd5b60008083601f840112611cfb57611cfa611cd6565b5b8235905067ffffffffffffffff811115611d1857611d17611cdb565b5b602083019150836001820283011115611d3457611d33611ce0565b5b9250929050565b60008083601f840112611d5157611d50611cd6565b5b8235905067ffffffffffffffff811115611d6e57611d6d611cdb565b5b602083019150836020820283011115611d8a57611d89611ce0565b5b9250929050565b600080600080600060608688031215611dad57611dac6118e7565b5b600086013567ffffffffffffffff811115611dcb57611dca6118ec565b5b611dd788828901611ce5565b9550955050602086013567ffffffffffffffff811115611dfa57611df96118ec565b5b611e0688828901611d3b565b93509350506040611e1988828901611912565b9150509295509295909350565b6000602082019050611e3b60008301846119d3565b92915050565b7f4e487b7100000000000000000000000000000000000000000000000000000000600052601160045260246000fd5b6000611e7b826118f1565b9150611e86836118f1565b9250828201905080821115611e9e57611e9d611e41565b5b92915050565b7f4e487b7100000000000000000000000000000000000000000000000000000000600052603260045260246000fd5b7f4e487b7100000000000000000000000000000000000000000000000000000000600052602260045260246000fd5b60006002820490506001821680611f1a57607f821691505b602082108103611f2d57611f2c611ed3565b5b50919050565b6000604082019050611f4860008301856119d3565b611f5560208301846119d3565b9392505050565b7f4e487b7100000000000000000000000000000000000000000000000000000000600052600160045260246000fd5b60008190508160005260206000209050919050565b60008154611fad81611f02565b611fb781866117d8565b94506001821660008114611fd25760018114611fe85761201b565b60ff19831686528115156020028601935061201b565b611ff185611f8b565b60005b8381101561201357815481890152600182019150602081019050611ff4565b808801955050505b50505092915050565b600060408201905061203960008301856119d3565b818103602083015261204b8184611fa0565b90509392505050565b7f4174206c656173742074776f206d6f766965732061726520726571756972656460008201527f20666f722061207375727665792e000000000000000000000000000000000000602082015250565b60006120b0602e836117d8565b91506120bb82612054565b604082019050919050565b600060208201905081810360008301526120df816120a3565b9050919050565b7f496e76616c696420737572766579206475726174696f6e2e0000000000000000600082015250565b600061211c6018836117d8565b9150612127826120e6565b602082019050919050565b6000602082019050818103600083015261214b8161210f565b9050919050565b600061215d826118f1565b91507fffffffffffffffffffffffffffffffffffffffffffffffffffffffffffffffff820361218f5761218e611e41565b5b600182019050919050565b600082905092915050565b7f4e487b7100000000000000000000000000000000000000000000000000000000600052604160045260246000fd5b60006020601f8301049050919050565b600082821b905092915050565b6000600883026122217fffffffffffffffffffffffffffffffffffffffffffffffffffffffffffffffff826121e4565b61222b86836121e4565b95508019841693508086168417925050509392505050565b6000819050919050565b600061226861226361225e846118f1565b612243565b6118f1565b9050919050565b6000819050919050565b6122828361224d565b61229661228e8261226f565b8484546121f1565b825550505050565b600090565b6122ab61229e565b6122b6818484612279565b505050565b5b818110156122da576122cf6000826122a3565b6001810190506122bc565b5050565b601f82111561231f576122f081611f8b565b6122f9846121d4565b81016020851015612308578190505b61231c612314856121d4565b8301826122bb565b50505b505050565b600082821c905092915050565b600061234260001984600802612324565b1980831691505092915050565b600061235b8383612331565b9150826002028217905092915050565b612375838361219a565b67ffffffffffffffff81111561238e5761238d6121a5565b5b6123988254611f02565b6123a38282856122de565b6000601f8311600181146123d257600084156123c0578287013590505b6123ca858261234f565b865550612432565b601f1984166123e086611f8b565b60005b82811015612408578489013582556001820191506020850194506020810190506123e3565b868310156124255784890135612421601f891682612331565b8355505b6001600288020188555050505b50505050505050565b600080fd5b600080fd5b600080fd5b600080833560016020038436030381126124675761246661243b565b5b80840192508235915067ffffffffffffffff82111561248957612488612440565b5b6020830192506001820236038313156124a5576124a4612445565b5b50925092905056fea264697066735822122092ffb6e88c0160b2fce0fdf147bfe66f02d07ee434ae9815cbe2f7485ecf0c7e64736f6c634300081a0033",
  "linkReferences": {},
  "deployedLinkReferences": {}
}